{
  "_format": "hh-sol-artifact-1",
  "contractName": "BondingManager",
  "sourceName": "contracts/bonding/BondingManager.sol",
  "abi": [
    {
      "inputs": [
        {
          "internalType": "address",
          "name": "_controller",
          "type": "address"
        }
      ],
      "stateMutability": "nonpayable",
      "type": "constructor"
    },
    {
      "anonymous": false,
      "inputs": [
        {
          "indexed": true,
          "internalType": "address",
          "name": "newDelegate",
          "type": "address"
        },
        {
          "indexed": true,
          "internalType": "address",
          "name": "oldDelegate",
          "type": "address"
        },
        {
          "indexed": true,
          "internalType": "address",
          "name": "delegator",
          "type": "address"
        },
        {
          "indexed": false,
          "internalType": "uint256",
          "name": "additionalAmount",
          "type": "uint256"
        },
        {
          "indexed": false,
          "internalType": "uint256",
          "name": "bondedAmount",
          "type": "uint256"
        }
      ],
      "name": "Bond",
      "type": "event"
    },
    {
      "anonymous": false,
      "inputs": [
        {
          "indexed": true,
          "internalType": "address",
          "name": "delegate",
          "type": "address"
        },
        {
          "indexed": true,
          "internalType": "address",
          "name": "delegator",
          "type": "address"
        },
        {
          "indexed": false,
          "internalType": "uint256",
          "name": "rewards",
          "type": "uint256"
        },
        {
          "indexed": false,
          "internalType": "uint256",
          "name": "fees",
          "type": "uint256"
        },
        {
          "indexed": false,
          "internalType": "uint256",
          "name": "startRound",
          "type": "uint256"
        },
        {
          "indexed": false,
          "internalType": "uint256",
          "name": "endRound",
          "type": "uint256"
        }
      ],
      "name": "EarningsClaimed",
      "type": "event"
    },
    {
      "anonymous": false,
      "inputs": [
        {
          "indexed": false,
          "internalType": "string",
          "name": "param",
          "type": "string"
        }
      ],
      "name": "ParameterUpdate",
      "type": "event"
    },
    {
      "anonymous": false,
      "inputs": [
        {
          "indexed": true,
          "internalType": "address",
          "name": "delegate",
          "type": "address"
        },
        {
          "indexed": true,
          "internalType": "address",
          "name": "delegator",
          "type": "address"
        },
        {
          "indexed": false,
          "internalType": "uint256",
          "name": "unbondingLockId",
          "type": "uint256"
        },
        {
          "indexed": false,
          "internalType": "uint256",
          "name": "amount",
          "type": "uint256"
        }
      ],
      "name": "Rebond",
      "type": "event"
    },
    {
      "anonymous": false,
      "inputs": [
        {
          "indexed": true,
          "internalType": "address",
          "name": "transcoder",
          "type": "address"
        },
        {
          "indexed": false,
          "internalType": "uint256",
          "name": "amount",
          "type": "uint256"
        }
      ],
      "name": "Reward",
      "type": "event"
    },
    {
      "anonymous": false,
      "inputs": [
        {
          "indexed": false,
          "internalType": "address",
          "name": "controller",
          "type": "address"
        }
      ],
      "name": "SetController",
      "type": "event"
    },
    {
      "anonymous": false,
      "inputs": [
        {
          "indexed": true,
          "internalType": "address",
          "name": "transcoder",
          "type": "address"
        },
        {
          "indexed": false,
          "internalType": "uint256",
          "name": "activationRound",
          "type": "uint256"
        }
      ],
      "name": "TranscoderActivated",
      "type": "event"
    },
    {
      "anonymous": false,
      "inputs": [
        {
          "indexed": true,
          "internalType": "address",
          "name": "transcoder",
          "type": "address"
        },
        {
          "indexed": false,
          "internalType": "uint256",
          "name": "deactivationRound",
          "type": "uint256"
        }
      ],
      "name": "TranscoderDeactivated",
      "type": "event"
    },
    {
      "anonymous": false,
      "inputs": [
        {
          "indexed": true,
          "internalType": "address",
          "name": "transcoder",
          "type": "address"
        },
        {
          "indexed": false,
          "internalType": "address",
          "name": "finder",
          "type": "address"
        },
        {
          "indexed": false,
          "internalType": "uint256",
          "name": "penalty",
          "type": "uint256"
        },
        {
          "indexed": false,
          "internalType": "uint256",
          "name": "finderReward",
          "type": "uint256"
        }
      ],
      "name": "TranscoderSlashed",
      "type": "event"
    },
    {
      "anonymous": false,
      "inputs": [
        {
          "indexed": true,
          "internalType": "address",
          "name": "transcoder",
          "type": "address"
        },
        {
          "indexed": false,
          "internalType": "uint256",
          "name": "rewardCut",
          "type": "uint256"
        },
        {
          "indexed": false,
          "internalType": "uint256",
          "name": "feeShare",
          "type": "uint256"
        }
      ],
      "name": "TranscoderUpdate",
      "type": "event"
    },
    {
      "anonymous": false,
      "inputs": [
        {
          "indexed": true,
          "internalType": "address",
          "name": "oldDelegator",
          "type": "address"
        },
        {
          "indexed": true,
          "internalType": "address",
          "name": "newDelegator",
          "type": "address"
        },
        {
          "indexed": false,
          "internalType": "uint256",
          "name": "oldUnbondingLockId",
          "type": "uint256"
        },
        {
          "indexed": false,
          "internalType": "uint256",
          "name": "newUnbondingLockId",
          "type": "uint256"
        },
        {
          "indexed": false,
          "internalType": "uint256",
          "name": "amount",
          "type": "uint256"
        }
      ],
      "name": "TransferBond",
      "type": "event"
    },
    {
      "anonymous": false,
      "inputs": [
        {
          "indexed": true,
          "internalType": "address",
          "name": "transcoder",
          "type": "address"
        },
        {
          "indexed": false,
          "internalType": "address",
          "name": "treasury",
          "type": "address"
        },
        {
          "indexed": false,
          "internalType": "uint256",
          "name": "amount",
          "type": "uint256"
        }
      ],
      "name": "TreasuryReward",
      "type": "event"
    },
    {
      "anonymous": false,
      "inputs": [
        {
          "indexed": true,
          "internalType": "address",
          "name": "delegate",
          "type": "address"
        },
        {
          "indexed": true,
          "internalType": "address",
          "name": "delegator",
          "type": "address"
        },
        {
          "indexed": false,
          "internalType": "uint256",
          "name": "unbondingLockId",
          "type": "uint256"
        },
        {
          "indexed": false,
          "internalType": "uint256",
          "name": "amount",
          "type": "uint256"
        },
        {
          "indexed": false,
          "internalType": "uint256",
          "name": "withdrawRound",
          "type": "uint256"
        }
      ],
      "name": "Unbond",
      "type": "event"
    },
    {
      "anonymous": false,
      "inputs": [
        {
          "indexed": true,
          "internalType": "address",
          "name": "delegator",
          "type": "address"
        },
        {
          "indexed": false,
          "internalType": "address",
          "name": "recipient",
          "type": "address"
        },
        {
          "indexed": false,
          "internalType": "uint256",
          "name": "amount",
          "type": "uint256"
        }
      ],
      "name": "WithdrawFees",
      "type": "event"
    },
    {
      "anonymous": false,
      "inputs": [
        {
          "indexed": true,
          "internalType": "address",
          "name": "delegator",
          "type": "address"
        },
        {
          "indexed": false,
          "internalType": "uint256",
          "name": "unbondingLockId",
          "type": "uint256"
        },
        {
          "indexed": false,
          "internalType": "uint256",
          "name": "amount",
          "type": "uint256"
        },
        {
          "indexed": false,
          "internalType": "uint256",
          "name": "withdrawRound",
          "type": "uint256"
        }
      ],
      "name": "WithdrawStake",
      "type": "event"
    },
    {
      "inputs": [
        {
          "internalType": "uint256",
          "name": "_amount",
          "type": "uint256"
        },
        {
          "internalType": "address",
          "name": "_to",
          "type": "address"
        }
      ],
      "name": "bond",
      "outputs": [],
      "stateMutability": "nonpayable",
      "type": "function"
    },
    {
      "inputs": [
        {
          "internalType": "uint256",
          "name": "_amount",
          "type": "uint256"
        },
        {
          "internalType": "address",
          "name": "_owner",
          "type": "address"
        },
        {
          "internalType": "address",
          "name": "_to",
          "type": "address"
        },
        {
          "internalType": "address",
          "name": "_oldDelegateNewPosPrev",
          "type": "address"
        },
        {
          "internalType": "address",
          "name": "_oldDelegateNewPosNext",
          "type": "address"
        },
        {
          "internalType": "address",
          "name": "_currDelegateNewPosPrev",
          "type": "address"
        },
        {
          "internalType": "address",
          "name": "_currDelegateNewPosNext",
          "type": "address"
        }
      ],
      "name": "bondForWithHint",
      "outputs": [],
      "stateMutability": "nonpayable",
      "type": "function"
    },
    {
      "inputs": [
        {
          "internalType": "uint256",
          "name": "_amount",
          "type": "uint256"
        },
        {
          "internalType": "address",
          "name": "_to",
          "type": "address"
        },
        {
          "internalType": "address",
          "name": "_oldDelegateNewPosPrev",
          "type": "address"
        },
        {
          "internalType": "address",
          "name": "_oldDelegateNewPosNext",
          "type": "address"
        },
        {
          "internalType": "address",
          "name": "_currDelegateNewPosPrev",
          "type": "address"
        },
        {
          "internalType": "address",
          "name": "_currDelegateNewPosNext",
          "type": "address"
        }
      ],
      "name": "bondWithHint",
      "outputs": [],
      "stateMutability": "nonpayable",
      "type": "function"
    },
    {
      "inputs": [
        {
          "internalType": "address",
          "name": "_account",
          "type": "address"
        }
      ],
      "name": "checkpointBondingState",
      "outputs": [],
      "stateMutability": "nonpayable",
      "type": "function"
    },
    {
      "inputs": [
        {
          "internalType": "uint256",
          "name": "_endRound",
          "type": "uint256"
        }
      ],
      "name": "claimEarnings",
      "outputs": [],
      "stateMutability": "nonpayable",
      "type": "function"
    },
    {
      "inputs": [],
      "name": "controller",
      "outputs": [
        {
          "internalType": "contract IController",
          "name": "",
          "type": "address"
        }
      ],
      "stateMutability": "view",
      "type": "function"
    },
    {
      "inputs": [],
      "name": "currentRoundTotalActiveStake",
      "outputs": [
        {
          "internalType": "uint256",
          "name": "",
          "type": "uint256"
        }
      ],
      "stateMutability": "view",
      "type": "function"
    },
    {
      "inputs": [
        {
          "internalType": "address",
          "name": "_delegator",
          "type": "address"
        }
      ],
      "name": "delegatorStatus",
      "outputs": [
        {
          "internalType": "enum BondingManager.DelegatorStatus",
          "name": "",
          "type": "uint8"
        }
      ],
      "stateMutability": "view",
      "type": "function"
    },
    {
      "inputs": [
        {
          "internalType": "address",
          "name": "_delegator",
          "type": "address"
        }
      ],
      "name": "getDelegator",
      "outputs": [
        {
          "internalType": "uint256",
          "name": "bondedAmount",
          "type": "uint256"
        },
        {
          "internalType": "uint256",
          "name": "fees",
          "type": "uint256"
        },
        {
          "internalType": "address",
          "name": "delegateAddress",
          "type": "address"
        },
        {
          "internalType": "uint256",
          "name": "delegatedAmount",
          "type": "uint256"
        },
        {
          "internalType": "uint256",
          "name": "startRound",
          "type": "uint256"
        },
        {
          "internalType": "uint256",
          "name": "lastClaimRound",
          "type": "uint256"
        },
        {
          "internalType": "uint256",
          "name": "nextUnbondingLockId",
          "type": "uint256"
        }
      ],
      "stateMutability": "view",
      "type": "function"
    },
    {
      "inputs": [
        {
          "internalType": "address",
          "name": "_delegator",
          "type": "address"
        },
        {
          "internalType": "uint256",
          "name": "_unbondingLockId",
          "type": "uint256"
        }
      ],
      "name": "getDelegatorUnbondingLock",
      "outputs": [
        {
          "internalType": "uint256",
          "name": "amount",
          "type": "uint256"
        },
        {
          "internalType": "uint256",
          "name": "withdrawRound",
          "type": "uint256"
        }
      ],
      "stateMutability": "view",
      "type": "function"
    },
    {
      "inputs": [],
      "name": "getFirstTranscoderInPool",
      "outputs": [
        {
          "internalType": "address",
          "name": "",
          "type": "address"
        }
      ],
      "stateMutability": "view",
      "type": "function"
    },
    {
      "inputs": [
        {
          "internalType": "address",
          "name": "_transcoder",
          "type": "address"
        }
      ],
      "name": "getNextTranscoderInPool",
      "outputs": [
        {
          "internalType": "address",
          "name": "",
          "type": "address"
        }
      ],
      "stateMutability": "view",
      "type": "function"
    },
    {
      "inputs": [],
      "name": "getTotalBonded",
      "outputs": [
        {
          "internalType": "uint256",
          "name": "",
          "type": "uint256"
        }
      ],
      "stateMutability": "view",
      "type": "function"
    },
    {
      "inputs": [
        {
          "internalType": "address",
          "name": "_transcoder",
          "type": "address"
        }
      ],
      "name": "getTranscoder",
      "outputs": [
        {
          "internalType": "uint256",
          "name": "lastRewardRound",
          "type": "uint256"
        },
        {
          "internalType": "uint256",
          "name": "rewardCut",
          "type": "uint256"
        },
        {
          "internalType": "uint256",
          "name": "feeShare",
          "type": "uint256"
        },
        {
          "internalType": "uint256",
          "name": "lastActiveStakeUpdateRound",
          "type": "uint256"
        },
        {
          "internalType": "uint256",
          "name": "activationRound",
          "type": "uint256"
        },
        {
          "internalType": "uint256",
          "name": "deactivationRound",
          "type": "uint256"
        },
        {
          "internalType": "uint256",
          "name": "activeCumulativeRewards",
          "type": "uint256"
        },
        {
          "internalType": "uint256",
          "name": "cumulativeRewards",
          "type": "uint256"
        },
        {
          "internalType": "uint256",
          "name": "cumulativeFees",
          "type": "uint256"
        },
        {
          "internalType": "uint256",
          "name": "lastFeeRound",
          "type": "uint256"
        }
      ],
      "stateMutability": "view",
      "type": "function"
    },
    {
      "inputs": [
        {
          "internalType": "address",
          "name": "_transcoder",
          "type": "address"
        },
        {
          "internalType": "uint256",
          "name": "_round",
          "type": "uint256"
        }
      ],
      "name": "getTranscoderEarningsPoolForRound",
      "outputs": [
        {
          "internalType": "uint256",
          "name": "totalStake",
          "type": "uint256"
        },
        {
          "internalType": "uint256",
          "name": "transcoderRewardCut",
          "type": "uint256"
        },
        {
          "internalType": "uint256",
          "name": "transcoderFeeShare",
          "type": "uint256"
        },
        {
          "internalType": "uint256",
          "name": "cumulativeRewardFactor",
          "type": "uint256"
        },
        {
          "internalType": "uint256",
          "name": "cumulativeFeeFactor",
          "type": "uint256"
        }
      ],
      "stateMutability": "view",
      "type": "function"
    },
    {
      "inputs": [],
      "name": "getTranscoderPoolMaxSize",
      "outputs": [
        {
          "internalType": "uint256",
          "name": "",
          "type": "uint256"
        }
      ],
      "stateMutability": "view",
      "type": "function"
    },
    {
      "inputs": [],
      "name": "getTranscoderPoolSize",
      "outputs": [
        {
          "internalType": "uint256",
          "name": "",
          "type": "uint256"
        }
      ],
      "stateMutability": "view",
      "type": "function"
    },
    {
      "inputs": [
        {
          "internalType": "address",
          "name": "_transcoder",
          "type": "address"
        }
      ],
      "name": "isActiveTranscoder",
      "outputs": [
        {
          "internalType": "bool",
          "name": "",
          "type": "bool"
        }
      ],
      "stateMutability": "view",
      "type": "function"
    },
    {
      "inputs": [
        {
          "internalType": "address",
          "name": "_transcoder",
          "type": "address"
        }
      ],
      "name": "isRegisteredTranscoder",
      "outputs": [
        {
          "internalType": "bool",
          "name": "",
          "type": "bool"
        }
      ],
      "stateMutability": "view",
      "type": "function"
    },
    {
      "inputs": [
        {
          "internalType": "address",
          "name": "_delegator",
          "type": "address"
        },
        {
          "internalType": "uint256",
          "name": "_unbondingLockId",
          "type": "uint256"
        }
      ],
      "name": "isValidUnbondingLock",
      "outputs": [
        {
          "internalType": "bool",
          "name": "",
          "type": "bool"
        }
      ],
      "stateMutability": "view",
      "type": "function"
    },
    {
      "inputs": [],
      "name": "nextRoundTotalActiveStake",
      "outputs": [
        {
          "internalType": "uint256",
          "name": "",
          "type": "uint256"
        }
      ],
      "stateMutability": "view",
      "type": "function"
    },
    {
      "inputs": [],
      "name": "nextRoundTreasuryRewardCutRate",
      "outputs": [
        {
          "internalType": "uint256",
          "name": "",
          "type": "uint256"
        }
      ],
      "stateMutability": "view",
      "type": "function"
    },
    {
      "inputs": [
        {
          "internalType": "address",
          "name": "_delegator",
          "type": "address"
        },
        {
          "internalType": "uint256",
          "name": "_endRound",
          "type": "uint256"
        }
      ],
      "name": "pendingFees",
      "outputs": [
        {
          "internalType": "uint256",
          "name": "",
          "type": "uint256"
        }
      ],
      "stateMutability": "view",
      "type": "function"
    },
    {
      "inputs": [
        {
          "internalType": "address",
          "name": "_delegator",
          "type": "address"
        },
        {
          "internalType": "uint256",
          "name": "_endRound",
          "type": "uint256"
        }
      ],
      "name": "pendingStake",
      "outputs": [
        {
          "internalType": "uint256",
          "name": "",
          "type": "uint256"
        }
      ],
      "stateMutability": "view",
      "type": "function"
    },
    {
      "inputs": [
        {
          "internalType": "uint256",
          "name": "_unbondingLockId",
          "type": "uint256"
        }
      ],
      "name": "rebond",
      "outputs": [],
      "stateMutability": "nonpayable",
      "type": "function"
    },
    {
      "inputs": [
        {
          "internalType": "address",
          "name": "_to",
          "type": "address"
        },
        {
          "internalType": "uint256",
          "name": "_unbondingLockId",
          "type": "uint256"
        }
      ],
      "name": "rebondFromUnbonded",
      "outputs": [],
      "stateMutability": "nonpayable",
      "type": "function"
    },
    {
      "inputs": [
        {
          "internalType": "address",
          "name": "_to",
          "type": "address"
        },
        {
          "internalType": "uint256",
          "name": "_unbondingLockId",
          "type": "uint256"
        },
        {
          "internalType": "address",
          "name": "_newPosPrev",
          "type": "address"
        },
        {
          "internalType": "address",
          "name": "_newPosNext",
          "type": "address"
        }
      ],
      "name": "rebondFromUnbondedWithHint",
      "outputs": [],
      "stateMutability": "nonpayable",
      "type": "function"
    },
    {
      "inputs": [
        {
          "internalType": "uint256",
          "name": "_unbondingLockId",
          "type": "uint256"
        },
        {
          "internalType": "address",
          "name": "_newPosPrev",
          "type": "address"
        },
        {
          "internalType": "address",
          "name": "_newPosNext",
          "type": "address"
        }
      ],
      "name": "rebondWithHint",
      "outputs": [],
      "stateMutability": "nonpayable",
      "type": "function"
    },
    {
      "inputs": [],
      "name": "reward",
      "outputs": [],
      "stateMutability": "nonpayable",
      "type": "function"
    },
    {
      "inputs": [
        {
          "internalType": "address",
          "name": "_newPosPrev",
          "type": "address"
        },
        {
          "internalType": "address",
          "name": "_newPosNext",
          "type": "address"
        }
      ],
      "name": "rewardWithHint",
      "outputs": [],
      "stateMutability": "nonpayable",
      "type": "function"
    },
    {
      "inputs": [
        {
          "internalType": "address",
          "name": "_controller",
          "type": "address"
        }
      ],
      "name": "setController",
      "outputs": [],
      "stateMutability": "nonpayable",
      "type": "function"
    },
    {
      "inputs": [],
      "name": "setCurrentRoundTotalActiveStake",
      "outputs": [],
      "stateMutability": "nonpayable",
      "type": "function"
    },
    {
      "inputs": [
        {
          "internalType": "uint256",
          "name": "_numActiveTranscoders",
          "type": "uint256"
        }
      ],
      "name": "setNumActiveTranscoders",
      "outputs": [],
      "stateMutability": "nonpayable",
      "type": "function"
    },
    {
      "inputs": [
        {
          "internalType": "uint256",
          "name": "_ceiling",
          "type": "uint256"
        }
      ],
      "name": "setTreasuryBalanceCeiling",
      "outputs": [],
      "stateMutability": "nonpayable",
      "type": "function"
    },
    {
      "inputs": [
        {
          "internalType": "uint256",
          "name": "_cutRate",
          "type": "uint256"
        }
      ],
      "name": "setTreasuryRewardCutRate",
      "outputs": [],
      "stateMutability": "nonpayable",
      "type": "function"
    },
    {
      "inputs": [
        {
          "internalType": "uint64",
          "name": "_unbondingPeriod",
          "type": "uint64"
        }
      ],
      "name": "setUnbondingPeriod",
      "outputs": [],
      "stateMutability": "nonpayable",
      "type": "function"
    },
    {
      "inputs": [
        {
          "internalType": "address",
          "name": "_transcoder",
          "type": "address"
        },
        {
          "internalType": "address",
          "name": "_finder",
          "type": "address"
        },
        {
          "internalType": "uint256",
          "name": "_slashAmount",
          "type": "uint256"
        },
        {
          "internalType": "uint256",
          "name": "_finderFee",
          "type": "uint256"
        }
      ],
      "name": "slashTranscoder",
      "outputs": [],
      "stateMutability": "nonpayable",
      "type": "function"
    },
    {
      "inputs": [],
      "name": "targetContractId",
      "outputs": [
        {
          "internalType": "bytes32",
          "name": "",
          "type": "bytes32"
        }
      ],
      "stateMutability": "view",
      "type": "function"
    },
    {
      "inputs": [
        {
          "internalType": "uint256",
          "name": "_rewardCut",
          "type": "uint256"
        },
        {
          "internalType": "uint256",
          "name": "_feeShare",
          "type": "uint256"
        }
      ],
      "name": "transcoder",
      "outputs": [],
      "stateMutability": "nonpayable",
      "type": "function"
    },
    {
      "inputs": [
        {
          "internalType": "address",
          "name": "_transcoder",
          "type": "address"
        }
      ],
      "name": "transcoderStatus",
      "outputs": [
        {
          "internalType": "enum BondingManager.TranscoderStatus",
          "name": "",
          "type": "uint8"
        }
      ],
      "stateMutability": "view",
      "type": "function"
    },
    {
      "inputs": [
        {
          "internalType": "address",
          "name": "_transcoder",
          "type": "address"
        }
      ],
      "name": "transcoderTotalStake",
      "outputs": [
        {
          "internalType": "uint256",
          "name": "",
          "type": "uint256"
        }
      ],
      "stateMutability": "view",
      "type": "function"
    },
    {
      "inputs": [
        {
          "internalType": "uint256",
          "name": "_rewardCut",
          "type": "uint256"
        },
        {
          "internalType": "uint256",
          "name": "_feeShare",
          "type": "uint256"
        },
        {
          "internalType": "address",
          "name": "_newPosPrev",
          "type": "address"
        },
        {
          "internalType": "address",
          "name": "_newPosNext",
          "type": "address"
        }
      ],
      "name": "transcoderWithHint",
      "outputs": [],
      "stateMutability": "nonpayable",
      "type": "function"
    },
    {
      "inputs": [
        {
          "internalType": "address",
          "name": "_delegator",
          "type": "address"
        },
        {
          "internalType": "uint256",
          "name": "_amount",
          "type": "uint256"
        },
        {
          "internalType": "address",
          "name": "_oldDelegateNewPosPrev",
          "type": "address"
        },
        {
          "internalType": "address",
          "name": "_oldDelegateNewPosNext",
          "type": "address"
        },
        {
          "internalType": "address",
          "name": "_newDelegateNewPosPrev",
          "type": "address"
        },
        {
          "internalType": "address",
          "name": "_newDelegateNewPosNext",
          "type": "address"
        }
      ],
      "name": "transferBond",
      "outputs": [],
      "stateMutability": "nonpayable",
      "type": "function"
    },
    {
      "inputs": [],
      "name": "treasuryBalanceCeiling",
      "outputs": [
        {
          "internalType": "uint256",
          "name": "",
          "type": "uint256"
        }
      ],
      "stateMutability": "view",
      "type": "function"
    },
    {
      "inputs": [],
      "name": "treasuryRewardCutRate",
      "outputs": [
        {
          "internalType": "uint256",
          "name": "",
          "type": "uint256"
        }
      ],
      "stateMutability": "view",
      "type": "function"
    },
    {
      "inputs": [
        {
          "internalType": "uint256",
          "name": "_amount",
          "type": "uint256"
        }
      ],
      "name": "unbond",
      "outputs": [],
      "stateMutability": "nonpayable",
      "type": "function"
    },
    {
      "inputs": [
        {
          "internalType": "uint256",
          "name": "_amount",
          "type": "uint256"
        },
        {
          "internalType": "address",
          "name": "_newPosPrev",
          "type": "address"
        },
        {
          "internalType": "address",
          "name": "_newPosNext",
          "type": "address"
        }
      ],
      "name": "unbondWithHint",
      "outputs": [],
      "stateMutability": "nonpayable",
      "type": "function"
    },
    {
      "inputs": [],
      "name": "unbondingPeriod",
      "outputs": [
        {
          "internalType": "uint64",
          "name": "",
          "type": "uint64"
        }
      ],
      "stateMutability": "view",
      "type": "function"
    },
    {
      "inputs": [
        {
          "internalType": "address",
          "name": "_transcoder",
          "type": "address"
        },
        {
          "internalType": "uint256",
          "name": "_fees",
          "type": "uint256"
        },
        {
          "internalType": "uint256",
          "name": "_round",
          "type": "uint256"
        }
      ],
      "name": "updateTranscoderWithFees",
      "outputs": [],
      "stateMutability": "nonpayable",
      "type": "function"
    },
    {
      "inputs": [
        {
          "internalType": "address payable",
          "name": "_recipient",
          "type": "address"
        },
        {
          "internalType": "uint256",
          "name": "_amount",
          "type": "uint256"
        }
      ],
      "name": "withdrawFees",
      "outputs": [],
      "stateMutability": "nonpayable",
      "type": "function"
    },
    {
      "inputs": [
        {
          "internalType": "uint256",
          "name": "_unbondingLockId",
          "type": "uint256"
        }
      ],
      "name": "withdrawStake",
      "outputs": [],
      "stateMutability": "nonpayable",
      "type": "function"
    }
  ],
  "bytecode": "0x60806040523480156200001157600080fd5b506040516200576e3803806200576e83398101604081905262000034916200005a565b600080546001600160a01b0319166001600160a01b03929092169190911790556200008c565b6000602082840312156200006d57600080fd5b81516001600160a01b03811681146200008557600080fd5b9392505050565b6156d2806200009c6000396000f3fe608060405234801561001057600080fd5b50600436106102f15760003560e01c80635dce99481161019d5780639d0b2c7a116100e9578063cf33a0d5116100a2578063ee4e804a1161007c578063ee4e804a1461083d578063f10d1de114610850578063f595f1cc14610863578063f77c47911461087657600080fd5b8063cf33a0d514610804578063d52bd62b14610817578063eaffb3f91461082a57600080fd5b80639d0b2c7a146107115780639ef9df9414610724578063a576623114610737578063a64ad59514610740578063ad3b1b47146107de578063b78d27dc146107f157600080fd5b80637fc4606f1161015657806388a6c7491161013057806388a6c749146106c35780638b2f1652146106cb57806392eefe9b146106eb5780639500ed9b146106fe57600080fd5b80637fc4606f1461069457806381871056146106a757806384a16bbc146106ba57600080fd5b80635dce994814610574578063673a456b1461062657806368ba170c146106395780636bd9add41461064c5780636cf6d6751461065f578063713f22161461068c57600080fd5b80632a4e0d551161025c5780634196ee751161021557806351720b41116101ef57806351720b4114610552578063558f8f441461055b5780635a2a75a9146105645780635c50c3561461056c57600080fd5b80634196ee751461052d57806343d3461a14610536578063465501d31461054957600080fd5b80632a4e0d55146104745780633550aa101461048a5780633a080e931461049d5780633aeb512c146104b057806340e6f271146104c3578063412f83b6146104d657600080fd5b806322bf9d7c116102ae57806322bf9d7c14610381578063235c96031461039457806324454fc4146103bf57806324b1babf1461043b57806325d5971f1461044e57806327de9e321461046157600080fd5b80630584a373146102f6578063062e98b81461030b578063088023741461031e5780630fd02fc1146103465780631544fc6714610359578063228cb73314610379575b600080fd5b61030961030436600461515f565b610889565b005b6103096103193660046151b2565b6109eb565b61033161032c36600461522b565b610cc9565b60405190151581526020015b60405180910390f35b610331610354366004615248565b610d7b565b61036c61036736600461522b565b610dac565b60405161033d919061528a565b610309610e68565b61030961038f3660046152a4565b610e75565b6103a76103a236600461522b565b61127c565b6040516001600160a01b03909116815260200161033d565b6104136103cd366004615248565b6001600160a01b03909116600090815260046020818152604080842094845260039485019091529091208054600182015460028301549483015492909301549094929392565b604080519586526020860194909452928401919091526060830152608082015260a00161033d565b6103096104493660046152ea565b611317565b61030961045c3660046152ea565b611363565b61030961046f3660046152ea565b6115ad565b61047c6115bc565b60405190815260200161033d565b610309610498366004615303565b611648565b6103096104ab366004615248565b611a7c565b6103096104be366004615332565b611a89565b6103096104d13660046152ea565b611dfb565b6105186104e4366004615248565b6001600160a01b03919091166000908152600360209081526040808320938352600790930190522080546001909101549091565b6040805192835260208301919091520161033d565b61047c60055481565b610309610544366004615367565b611e5a565b61047c60065481565b61047c60015481565b61047c600c5481565b61047c611e67565b60055461047c565b6105dc61058236600461522b565b6001600160a01b031660009081526004602081905260409091208054600182015460028301549383015460058401546006850154600786015460088701546009880154600a90980154969995989794969395929491939092565b604080519a8b5260208b0199909952978901969096526060880194909452608087019290925260a086015260c085015260e08401526101008301526101208201526101400161033d565b6103096106343660046152ea565b611ea2565b61033161064736600461522b565b611f58565b61030961065a366004615389565b611f90565b6002546106739067ffffffffffffffff1681565b60405167ffffffffffffffff909116815260200161033d565b610309611f9f565b6103096106a23660046153c4565b6120f6565b6103096106b5366004615406565b61217e565b61047c600e5481565b6103a76125ff565b6106de6106d936600461522b565b612685565b60405161033d919061543f565b6103096106f936600461522b565b6126a5565b61030961070c3660046153c4565b6126fb565b61047c61071f366004615248565b612ac5565b61047c61073236600461522b565b612b58565b61047c600d5481565b61079b61074e36600461522b565b6001600160a01b0390811660009081526003602081905260409091208054600182015460028301549383015460048401546005850154600690950154939792969590951694909390929091565b6040805197885260208801969096526001600160a01b03909416948601949094526060850191909152608084015260a083019190915260c082015260e00161033d565b6103096107ec366004615248565b612b77565b6103096107ff366004615453565b612d3b565b6103096108123660046152ea565b612d4b565b61030961082536600461522b565b612d5c565b6103096108383660046152ea565b612d8a565b61030961084b366004615478565b612d96565b61030961085e366004615505565b6132ef565b61047c610871366004615248565b613356565b6000546103a7906001600160a01b031681565b6108916133e9565b6108996134ad565b336108a381613571565b60026108ae33610dac565b60028111156108bf576108bf615274565b146109115760405162461bcd60e51b815260206004820152601760248201527f63616c6c6572206d75737420626520756e626f6e64656400000000000000000060448201526064015b60405180910390fd5b600061091b61361d565b6001600160a01b0316638a19c8bc6040518163ffffffff1660e01b815260040160206040518083038186803b15801561095357600080fd5b505afa158015610967573d6000803e3d6000fd5b505050506040513d601f19601f8201168201806040525081019061098b919061552f565b90506109978682613696565b6109a2816001613716565b3360008181526003602052604090206004810192909255600290910180546001600160a01b0319166001600160a01b0389161790556109e390868686613722565b505050505050565b6109f36133e9565b6109fb6134ad565b610a04866138af565b610a0d33613571565b336000908152600360205260408082206001600160a01b038981168452919092206002830154909116610a418888886126fb565b6006830154600090610a54906001613a2a565b905060008460070160008381526020019081526020016000206001015490508460070160008381526020019081526020016000206000808201600090556001820160009055505060008460060154905060405180604001604052808c8152602001838152508560070160008381526020019081526020016000206000820151816000015560208201518160010155905050610afd6001866006015461371690919063ffffffff16565b600686015560408051848152602081018390529081018c90526001600160a01b038d169033907ff136b986590e86cf1abd7b6600186a7a1178ad3cbbdf0f3312e79f6214a2a5679060600160405180910390a36000610b5a61361d565b6001600160a01b0316638a19c8bc6040518163ffffffff1660e01b815260040160206040518083038186803b158015610b9257600080fd5b505afa158015610ba6573d6000803e3d6000fd5b505050506040513d601f19601f82011682018060405250810190610bca919061552f565b600587015490915081811015610be557610be58e8383613a36565b60028701546001600160a01b0316158015610bff57508654155b15610c7a578d6001600160a01b0316866001600160a01b03161415610c365760405162461bcd60e51b815260040161090890615548565b6001600160a01b038e16610c5c5760405162461bcd60e51b815260040161090890615548565b6002870180546001600160a01b0319166001600160a01b0388161790555b6002610c858f610dac565b6002811115610c9657610c96615274565b1415610cad57610ca7826001613716565b60048801555b610cb98e848c8c613722565b5050505050505050505050505050565b6001600160a01b038116600090815260046020526040812081610cea61361d565b6001600160a01b0316638a19c8bc6040518163ffffffff1660e01b815260040160206040518083038186803b158015610d2257600080fd5b505afa158015610d36573d6000803e3d6000fd5b505050506040513d601f19601f82011682018060405250810190610d5a919061552f565b905080826005015411158015610d735750816006015481105b949350505050565b6001600160a01b03919091166000908152600360209081526040808320938352600790930190522060010154151590565b6001600160a01b03811660009081526003602052604081208054610dd35750600292915050565b610ddb61361d565b6001600160a01b0316638a19c8bc6040518163ffffffff1660e01b815260040160206040518083038186803b158015610e1357600080fd5b505afa158015610e27573d6000803e3d6000fd5b505050506040513d601f19601f82011682018060405250810190610e4b919061552f565b81600401541115610e5f5750600092915050565b50600192915050565b610e7360008061217e565b565b610e7d6133e9565b610e85613b6c565b83610e8f81613571565b6001600160a01b03851660009081526003602052604090208054869190156111fe576001600160a01b038716600090815260036020526040812054610ed49087613c67565b60405163b0138c4760e01b8152600760048201526001600160a01b038a16602482015290915073__$d23c89be677d40ab24c636937040b6165f$__9063b0138c479060440160206040518083038186803b158015610f3157600080fd5b505af4158015610f45573d6000803e3d6000fd5b505050506040513d601f19601f82011682018060405250810190610f699190615573565b15610f7757610f7788613c80565b8154610f839082613a2a565b82556001610f9089610dac565b6002811115610fa157610fa1615274565b1415610ff45760028201546001600160a01b031660009081526003602081905260409091200154610fd29082613a2a565b60028301546001600160a01b0316600090815260036020819052604090912001555b806001600160a01b038816156111435760006110108388613c67565b905061101a613db1565b60405163e7a49c2b60e01b81526001600160a01b038b8116600483015260248201849052919091169063e7a49c2b90604401600060405180830381600087803b15801561106657600080fd5b505af115801561107a573d6000803e3d6000fd5b50505050611086613db1565b6001600160a01b031663c7ee98c261109e8484613a2a565b6040518263ffffffff1660e01b81526004016110bc91815260200190565b600060405180830381600087803b1580156110d657600080fd5b505af11580156110ea573d6000803e3d6000fd5b5050604080516001600160a01b038d8116825260208201889052918101859052908d1692507ff4b71fed8e2c9a8c67c388bc6d35ad20b9368a24eed6d565459f2b277b6c0c22915060600160405180910390a2506111f7565b61114b613db1565b6001600160a01b031663c7ee98c2826040518263ffffffff1660e01b815260040161117891815260200190565b600060405180830381600087803b15801561119257600080fd5b505af11580156111a6573d6000803e3d6000fd5b5050604080516000808252602082018790528183015290516001600160a01b038d1693507ff4b71fed8e2c9a8c67c388bc6d35ad20b9368a24eed6d565459f2b277b6c0c2292509081900360600190a25b505061124d565b604080516001600160a01b038881168252600060208301819052828401529151918916917ff4b71fed8e2c9a8c67c388bc6d35ad20b9368a24eed6d565459f2b277b6c0c229181900360600190a25b506001600160a01b038116600090815260036020908152604080832060049092529091206109e3918391613e02565b60405163e189dedb60e01b8152600760048201526001600160a01b038216602482015260009073__$d23c89be677d40ab24c636937040b6165f$__9063e189dedb9060440160206040518083038186803b1580156112d957600080fd5b505af41580156112ed573d6000803e3d6000fd5b505050506040513d601f19601f820116820180604052508101906113119190615595565b92915050565b61131f6133e9565b6113276134ad565b3361133133613571565b6001600160a01b0381166000908152600360209081526040808320600490925290912061135f918391613e02565b5050565b61136b6133e9565b6113736134ad565b33600081815260036020908152604080832085845260078101909252909120909161139e9084610d7b565b6113e65760405162461bcd60e51b81526020600482015260196024820152781a5b9d985b1a59081d5b989bdb991a5b99c81b1bd8dac81251603a1b6044820152606401610908565b6113ee61361d565b6001600160a01b0316638a19c8bc6040518163ffffffff1660e01b815260040160206040518083038186803b15801561142657600080fd5b505afa15801561143a573d6000803e3d6000fd5b505050506040513d601f19601f8201168201806040525081019061145e919061552f565b816001015411156114d75760405162461bcd60e51b815260206004820152603b60248201527f776974686472617720726f756e64206d757374206265206265666f7265206f7260448201527f20657175616c20746f207468652063757272656e7420726f756e6400000000006064820152608401610908565b80546001808301546000868152600786016020526040812081815590920191909155611501613db1565b60405163e7a49c2b60e01b8152336004820152602481018490526001600160a01b03919091169063e7a49c2b90604401600060405180830381600087803b15801561154b57600080fd5b505af115801561155f573d6000803e3d6000fd5b505060408051888152602081018690529081018490523392507f1340f1a8f3d456a649e1a12071dfa15655e3d09252131d0f980c3b405cc8dd2e915060600160405180910390a25050505050565b6115b9816000806126fb565b50565b604051631665d9cb60e31b81526007600482015260009073__$d23c89be677d40ab24c636937040b6165f$__9063b32ece58906024015b60206040518083038186803b15801561160b57600080fd5b505af415801561161f573d6000803e3d6000fd5b505050506040513d601f19601f82011682018060405250810190611643919061552f565b905090565b6116506133e9565b6116586134ad565b61166061361d565b6001600160a01b0316636841f2536040518163ffffffff1660e01b815260040160206040518083038186803b15801561169857600080fd5b505afa1580156116ac573d6000803e3d6000fd5b505050506040513d601f19601f820116820180604052508101906116d09190615573565b156117435760405162461bcd60e51b815260206004820152603760248201527f63616e277420757064617465207472616e73636f64657220706172616d732c2060448201527f63757272656e7420726f756e64206973206c6f636b65640000000000000000006064820152608401610908565b61175084620f4240101590565b61179c5760405162461bcd60e51b815260206004820152601c60248201527f696e76616c6964207265776172644375742070657263656e74616765000000006044820152606401610908565b6117a983620f4240101590565b6117f55760405162461bcd60e51b815260206004820152601b60248201527f696e76616c69642066656553686172652070657263656e7461676500000000006044820152606401610908565b6117fe33611f58565b61184a5760405162461bcd60e51b815260206004820152601d60248201527f7472616e73636f646572206d75737420626520726567697374657265640000006044820152606401610908565b3360009081526004602052604081209061186261361d565b6001600160a01b0316638a19c8bc6040518163ffffffff1660e01b815260040160206040518083038186803b15801561189a57600080fd5b505afa1580156118ae573d6000803e3d6000fd5b505050506040513d601f19601f820116820180604052508101906118d2919061552f565b90506118dd33610cc9565b15806118e95750815481145b6119735760405162461bcd60e51b815260206004820152604f60248201527f63616c6c65722063616e277420626520616374697665206f72206d757374206860448201527f61766520616c72656164792063616c6c65642072657761726420666f7220746860648201526e194818dd5c9c995b9d081c9bdd5b99608a1b608482015260a401610908565b600182018690556002820185905560405163b0138c4760e01b81526007600482015233602482015273__$d23c89be677d40ab24c636937040b6165f$__9063b0138c479060440160206040518083038186803b1580156119d257600080fd5b505af41580156119e6573d6000803e3d6000fd5b505050506040513d601f19601f82011682018060405250810190611a0a9190615573565b611a39573360008181526003602081905260409091200154611a399190611a32846001613716565b8787613f2e565b604080518781526020810187905233917f7346854431dbb3eb8e373c604abf89e90f4865b8447e1e2834d7b3e4677bf544910160405180910390a2505050505050565b61135f8282600080610889565b611a916133e9565b611a99614251565b611aa283611f58565b611aee5760405162461bcd60e51b815260206004820152601d60248201527f7472616e73636f646572206d75737420626520726567697374657265640000006044820152606401610908565b6000611af861361d565b6001600160a01b0316638a19c8bc6040518163ffffffff1660e01b815260040160206040518083038186803b158015611b3057600080fd5b505afa158015611b44573d6000803e3d6000fd5b505050506040513d601f19601f82011682018060405250810190611b68919061552f565b6001600160a01b03851660009081526004602090815260408083208054600782015486865260038301909452918420949550939092611bb185611bac886001613a2a565b61434c565b905083861115611bfb5760018581015460028088015492850191909155830155600485015486811015611bf257600081815260038701602052604090205483555b85600801549350505b81546060820151158015611c0e57508685145b15611d7b576000611c1d613db1565b90506000611d18611d0f836001600160a01b0316632de22cdb6040518163ffffffff1660e01b815260040160206040518083038186803b158015611c6057600080fd5b505afa158015611c74573d6000803e3d6000fd5b505050506040513d601f19601f82011682018060405250810190611c98919061552f565b846001600160a01b0316639ae6309a6040518163ffffffff1660e01b815260040160206040518083038186803b158015611cd157600080fd5b505afa158015611ce5573d6000803e3d6000fd5b505050506040513d601f19601f82011682018060405250810190611d09919061552f565b90613716565b846005546143f1565b90506000611d2882600c54614417565b9050611d348282613a2a565b91506000611d46838860010154613c67565b90506000611d548483613a2a565b6003890154909150611d709087611d6b8482613716565b6143f1565b606088015250505050505b80841115611d8b57611d8b6155b2565b6000611d9b8a8560020154613c67565b90506000611da98b83613a2a565b90506000611db88388866143f1565b9050611dd582611d09838c6009015461371690919063ffffffff16565b60098a0155611de5868685614433565b50505050600a9094019490945550505050505050565b611e036144ae565b600e81905560405160008051602061567d83398151915290611e4f90602080825260169082015275747265617375727942616c616e63654365696c696e6760501b604082015260600190565b60405180910390a150565b61135f8282600080611648565b6040516339ade16560e11b81526007600482015260009073__$d23c89be677d40ab24c636937040b6165f$__9063735bc2ca906024016115f3565b611eaa6144ae565b60405163a176adaf60e01b8152600760048201526024810182905273__$d23c89be677d40ab24c636937040b6165f$__9063a176adaf9060440160006040518083038186803b158015611efc57600080fd5b505af4158015611f10573d6000803e3d6000fd5b5050505060008051602061567d833981519152604051611e4f906020808252601490820152736e756d4163746976655472616e73636f6465727360601b604082015260600190565b6001600160a01b0380821660008181526003602052604081206002810154919390929116148015611f895750805415155b9392505050565b6109e386338787878787612d96565b611fa7614592565b600654600555600c54600d541461200d57600d54600c5560405160008051602061567d833981519152906120049060208082526015908201527474726561737572795265776172644375745261746560581b604082015260600190565b60405180910390a15b61201561468d565b6001600160a01b031663ef105c9160055461202e61361d565b6001600160a01b0316638a19c8bc6040518163ffffffff1660e01b815260040160206040518083038186803b15801561206657600080fd5b505afa15801561207a573d6000803e3d6000fd5b505050506040513d601f19601f8201168201806040525081019061209e919061552f565b6040516001600160e01b031960e085901b16815260048101929092526024820152604401600060405180830381600087803b1580156120dc57600080fd5b505af11580156120f0573d6000803e3d6000fd5b50505050565b6120fe6133e9565b6121066134ad565b3361211081613571565b600261211b33610dac565b600281111561212c5761212c615274565b14156121725760405162461bcd60e51b815260206004820152601560248201527418d85b1b195c881b5d5cdd08189948189bdb991959605a1b6044820152606401610908565b6120f033858585613722565b6121866133e9565b61218e6134ad565b33600061219961361d565b6001600160a01b0316638a19c8bc6040518163ffffffff1660e01b815260040160206040518083038186803b1580156121d157600080fd5b505afa1580156121e5573d6000803e3d6000fd5b505050506040513d601f19601f82011682018060405250810190612209919061552f565b905061221433610cc9565b61226c5760405162461bcd60e51b815260206004820152602360248201527f63616c6c6572206d75737420626520616e20616374697665207472616e73636f6044820152623232b960e91b6064820152608401610908565b336000908152600460205260409020548114156122ea5760405162461bcd60e51b815260206004820152603660248201527f63616c6c65722068617320616c72656164792063616c6c65642072657761726460448201527508199bdc881d1a194818dd5c9c995b9d081c9bdd5b9960521b6064820152608401610908565b336000908152600460209081526040808320848452600381019092529091206001808301546002808501549284019190915582015560048201548381101561234057600081815260038401602052604090205482555b600e54156124065760006123526146de565b6001600160a01b03166370a0823161236861472f565b6040516001600160e01b031960e084901b1681526001600160a01b03909116600482015260240160206040518083038186803b1580156123a757600080fd5b505afa1580156123bb573d6000803e3d6000fd5b505050506040513d601f19601f820116820180604052508101906123df919061552f565b9050600e5481101580156123f557506000600d54115b15612404576124046000614780565b505b6000612410613db1565b8354600554604051637dbedad560e01b81529293506000926001600160a01b03851692637dbedad59261244e92600401918252602082015260400190565b602060405180830381600087803b15801561246857600080fd5b505af115801561247c573d6000803e3d6000fd5b505050506040513d601f19601f820116820180604052508101906124a0919061552f565b905060006124b082600c54614417565b9050801561256e5760006124c261472f565b60405163e7a49c2b60e01b81526001600160a01b038083166004830152602482018590529192509085169063e7a49c2b90604401600060405180830381600087803b15801561251057600080fd5b505af1158015612524573d6000803e3d6000fd5b5050604080516001600160a01b0385168152602081018690523393507f40e200718fe552021167687e5491d09f5931275b6f88f14a462650f0effb523792500160405180910390a2505b600061257a8383613a2a565b905061258933828a8e8e614844565b87875560405181815233907f619caafabdd75649b302ba8419e48cccf64f37f1983ac4727cfb38b57703ffc99060200160405180910390a2505050506001600160a01b038516600090815260036020908152604080832060049092529091206125fa95508694509092509050613e02565b505050565b604051632ebb2fed60e01b81526007600482015260009073__$d23c89be677d40ab24c636937040b6165f$__90632ebb2fed9060240160206040518083038186803b15801561264d57600080fd5b505af4158015612661573d6000803e3d6000fd5b505050506040513d601f19601f820116820180604052508101906116439190615595565b600061269082611f58565b1561269d57506001919050565b506000919050565b6126ad614916565b600080546001600160a01b0319166001600160a01b0383169081179091556040519081527f4ff638452bbf33c012645d18ae6f05515ff5f2d1dfb0cece8cbf018c60903f7090602001611e4f565b6127036133e9565b61270b6134ad565b3361271581613571565b33600161272133610dac565b600281111561273257612732615274565b146127775760405162461bcd60e51b815260206004820152601560248201527418d85b1b195c881b5d5cdd08189948189bdb991959605a1b6044820152606401610908565b336000908152600360205260409020856127df5760405162461bcd60e51b8152602060048201526024808201527f756e626f6e6420616d6f756e74206d75737420626520677265617465722074686044820152630616e20360e41b6064820152608401610908565b805486111561283c5760405162461bcd60e51b8152602060048201526024808201527f616d6f756e742069732067726561746572207468616e20626f6e64656420616d6044820152631bdd5b9d60e21b6064820152608401610908565b60028101546001600160a01b0316600061285461361d565b6001600160a01b0316638a19c8bc6040518163ffffffff1660e01b815260040160206040518083038186803b15801561288c57600080fd5b505afa1580156128a0573d6000803e3d6000fd5b505050506040513d601f19601f820116820180604052508101906128c4919061552f565b6002549091506000906128e290839067ffffffffffffffff16613716565b60068501546040805180820182528c81526020808201858152600085815260078b0190925292902090518155905160019182015591925090612925908290613716565b60068601558454612936908b613a2a565b8086556129f3576002850180546001600160a01b0319169055600060048087019190915560405163b0138c4760e01b815260079181019190915233602482015273__$d23c89be677d40ab24c636937040b6165f$__9063b0138c479060440160206040518083038186803b1580156129ad57600080fd5b505af41580156129c1573d6000803e3d6000fd5b505050506040513d601f19601f820116820180604052508101906129e59190615573565b156129f3576129f333613c80565b6129ff848b8b8b614970565b6001600160a01b0384163314612a3d576001600160a01b03841660009081526003602090815260408083206004909252909120612a3d918691613e02565b60408051828152602081018c905290810183905233906001600160a01b038616907f2d5d98d189bee5496a08db2a5948cb7e5e786f09d17d0c3f228eb41776c24a069060600160405180910390a35050506001600160a01b03831660009081526003602090815260408083206004909252909120612abe9350849250613e02565b5050505050565b600080612ad061361d565b6001600160a01b0316638a19c8bc6040518163ffffffff1660e01b815260040160206040518083038186803b158015612b0857600080fd5b505afa158015612b1c573d6000803e3d6000fd5b505050506040513d601f19601f82011682018060405250810190612b40919061552f565b90506000612b4e8583614bce565b5095945050505050565b6001600160a01b03166000908152600360208190526040909120015490565b612b7f6133e9565b612b876134ad565b33612b9181613571565b336001600160a01b038416612bdc5760405162461bcd60e51b81526020600482015260116024820152701a5b9d985b1a59081c9958da5c1a595b9d607a1b6044820152606401610908565b3360009081526003602052604090206001015483811015612c3f5760405162461bcd60e51b815260206004820152601d60248201527f696e73756666696369656e74206665657320746f2077697468647261770000006044820152606401610908565b612c498185613a2a565b33600090815260036020526040902060010155612c64613db1565b6040516320283da960e01b81526001600160a01b0387811660048301526024820187905291909116906320283da990604401600060405180830381600087803b158015612cb057600080fd5b505af1158015612cc4573d6000803e3d6000fd5b5050604080516001600160a01b0389168152602081018890523393507f4f1b51dd7a2fcb861aa2670f668be66835c4ee12b4bbbf037e4d0018f39819e492500160405180910390a2506001600160a01b038116600090815260036020908152604080832060049092529091206120f0918391613e02565b61135f8282600080600080611f90565b612d536144ae565b6115b981614780565b6001600160a01b038116600090815260036020908152604080832060049092529091206115b9918391613e02565b6115b9816000806120f6565b612d9e6133e9565b612da66134ad565b612daf866138af565b612db886613571565b6001600160a01b038616600090815260036020526040812090612dd961361d565b6001600160a01b0316638a19c8bc6040518163ffffffff1660e01b815260040160206040518083038186803b158015612e1157600080fd5b505afa158015612e25573d6000803e3d6000fd5b505050506040513d601f19601f82011682018060405250810190612e49919061552f565b600283015483549192508a916001600160a01b03918216918b163314801590612e8b5750612e75614c93565b6001600160a01b0316336001600160a01b031614155b15612f93576001600160a01b038b16612eb65760405162461bcd60e51b815260040161090890615548565b6002612ec18c610dac565b6002811115612ed257612ed2615274565b1415612f32578a6001600160a01b03168a6001600160a01b03161415612f2d5760405162461bcd60e51b815260206004820152601060248201526f494e56414c49445f44454c454741544560801b6044820152606401610908565b612f93565b896001600160a01b0316826001600160a01b031614612f935760405162461bcd60e51b815260206004820152601760248201527f494e56414c49445f44454c45474154455f4348414e47450000000000000000006044820152606401610908565b6002612f9e8c610dac565b6002811115612faf57612faf615274565b1415612fca57612fc0846001613716565b60048601556130c3565b600081118015612fec5750896001600160a01b0316826001600160a01b031614155b156130c357612ffa8b611f58565b1561306d5760405162461bcd60e51b815260206004820152603d60248201527f72656769737465726564207472616e73636f646572732063616e27742064656c60448201527f656761746520746f7761726473206f74686572206164647265737365730000006064820152608401610908565b613078846001613716565b60048601556130878382613716565b925061309582828b8b614970565b6001600160a01b038216600090815260036020908152604080832060049092529091206130c3918491613e02565b6130cd8a85613696565b6000831161312e5760405162461bcd60e51b815260206004820152602860248201527f64656c65676174696f6e20616d6f756e74206d75737420626520677265617465604482015267072207468616e20360c41b6064820152608401610908565b6002850180546001600160a01b0319166001600160a01b038c16179055613155818d613716565b85556131638a848989614ce4565b8a6001600160a01b03168a6001600160a01b0316146131aa576001600160a01b038a16600090815260036020908152604080832060049092529091206131aa918c91613e02565b8b15613258576131b86146de565b6001600160a01b03166323b872dd336131cf613db1565b6040516001600160e01b031960e085901b1681526001600160a01b03928316600482015291166024820152604481018f9052606401602060405180830381600087803b15801561321e57600080fd5b505af1158015613232573d6000803e3d6000fd5b505050506040513d601f19601f820116820180604052508101906132569190615573565b505b8a6001600160a01b0316826001600160a01b03168b6001600160a01b03167fe5917769f276ddca9f2ee7c6b0b33e1d1e1b61008010ce622c632dd20d168a238f89600001546040516132b4929190918252602082015260400190565b60405180910390a46001600160a01b038b1660009081526004602052604090206132e1908c908790613e02565b505050505050505050505050565b6132f76144ae565b6002805467ffffffffffffffff831667ffffffffffffffff1990911617905560405160008051602061567d83398151915290611e4f906020808252600f908201526e1d5b989bdb991a5b99d4195c9a5bd9608a1b604082015260600190565b60008061336161361d565b6001600160a01b0316638a19c8bc6040518163ffffffff1660e01b815260040160206040518083038186803b15801561339957600080fd5b505afa1580156133ad573d6000803e3d6000fd5b505050506040513d601f19601f820116820180604052508101906133d1919061552f565b905060006133df8583614bce565b9695505050505050565b60008054906101000a90046001600160a01b03166001600160a01b0316635c975abb6040518163ffffffff1660e01b815260040160206040518083038186803b15801561343557600080fd5b505afa158015613449573d6000803e3d6000fd5b505050506040513d601f19601f8201168201806040525081019061346d9190615573565b15610e735760405162461bcd60e51b815260206004820152601060248201526f1cde5cdd195b481a5cc81c185d5cd95960821b6044820152606401610908565b6134b561361d565b6001600160a01b031663219bc76c6040518163ffffffff1660e01b815260040160206040518083038186803b1580156134ed57600080fd5b505afa158015613501573d6000803e3d6000fd5b505050506040513d601f19601f820116820180604052508101906135259190615573565b610e735760405162461bcd60e51b815260206004820181905260248201527f63757272656e7420726f756e64206973206e6f7420696e697469616c697a65646044820152606401610908565b600061357b61361d565b6001600160a01b0316638a19c8bc6040518163ffffffff1660e01b815260040160206040518083038186803b1580156135b357600080fd5b505afa1580156135c7573d6000803e3d6000fd5b505050506040513d601f19601f820116820180604052508101906135eb919061552f565b6001600160a01b038316600090815260036020526040902060050154909150818110156125fa576125fa838383613a36565b60008054604051631c2d8fb360e31b81527fe8438ea868df48e3fc21f2f087b993c9b1837dc0f6135064161ce7d7a1701fe860048201526001600160a01b039091169063e16c7d98906024015b60206040518083038186803b15801561368257600080fd5b505afa158015612661573d6000803e3d6000fd5b6001600160a01b038216600090815260046020908152604080832084845260038082019093529220908101546136e6578154838110156136e4576136da8382614f5f565b6060015160038301555b505b60048101546120f057600a82015483811015612abe576137068382614f5f565b6080015160048301555050505050565b6000611f8982846155de565b6001600160a01b0384166000908152600360209081526040808320868452600781019092529091208591906137578387610d7b565b61379f5760405162461bcd60e51b81526020600482015260196024820152781a5b9d985b1a59081d5b989bdb991a5b99c81b1bd8dac81251603a1b6044820152606401610908565b805482546137ad9082613716565b8355600087815260078401602052604081208181556001015560028301546001600160a01b03166137e081838989614ce4565b886001600160a01b0316816001600160a01b031614613827576001600160a01b03811660009081526003602090815260408083206004909252909120613827918391613e02565b886001600160a01b0316816001600160a01b03167f9f5b64cc71e1e26ff178caaa7877a04d8ce66fde989251870e80e6fbee690c178a85604051613875929190918252602082015260400190565b60405180910390a3505050506001600160a01b03811660009081526003602090815260408083206004909252909120612abe918391613e02565b336001600160a01b03821614806138de57506138c9614c93565b6001600160a01b0316336001600160a01b0316145b80613902575060026138ef82610dac565b600281111561390057613900615274565b145b1561390a5750565b6001600160a01b038082166000908152600360205260409020600281015490911661393481610cc9565b61393d57505050565b600061394761361d565b6001600160a01b0316638a19c8bc6040518163ffffffff1660e01b815260040160206040518083038186803b15801561397f57600080fd5b505afa158015613993573d6000803e3d6000fd5b505050506040513d601f19601f820116820180604052508101906139b7919061552f565b6001600160a01b03831660009081526004602052604090208054919250908214806139e55750818460050154145b612abe5760405162461bcd60e51b8152602060048201526016602482015275494c4c4547414c5f434c41494d5f4541524e494e475360501b6044820152606401610908565b6000611f8982846155f6565b6001600160a01b038316600090815260036020526040812090613a5a836001613716565b82546001840154600285015492935090916001600160a01b031615613ade57613a838787614bce565b600286015491935091506001600160a01b0316613aa08188613696565b60028501546001600160a01b0389811691161415613adc576001600160a01b038116600090815260046020526040812060098101829055600801555b505b600284015484546001600160a01b03808a169216907fd7eab0765b772ea6ea859d5633baf737502198012e930f257f90013d9b21109490613b20908690613a2a565b6001880154613b30908690613a2a565b6040805192835260208301919091528101879052606081018a905260800160405180910390a36005840195909555825550600101919091555050565b600054604051631c2d8fb360e31b81527f121833d5ee4fda5e1a4034c2b7be8155c158142541dea26f39122c796649233f60048201526001600160a01b039091169063e16c7d989060240160206040518083038186803b158015613bcf57600080fd5b505afa158015613be3573d6000803e3d6000fd5b505050506040513d601f19601f82011682018060405250810190613c079190615595565b6001600160a01b0316336001600160a01b031614610e735760405162461bcd60e51b815260206004820152601760248201527f63616c6c6572206d7573742062652056657269666965720000000000000000006044820152606401610908565b6000611f89620f4240613c7a8585614fc2565b90614fce565b604051635d35e00760e01b8152600760048201526001600160a01b038216602482015273__$d23c89be677d40ab24c636937040b6165f$__90635d35e0079060440160006040518083038186803b158015613cda57600080fd5b505af4158015613cee573d6000803e3d6000fd5b50505050613d07613cfe82612b58565b60065490613a2a565b6006556000613d516001613d1961361d565b6001600160a01b0316638a19c8bc6040518163ffffffff1660e01b815260040160206040518083038186803b158015611cd157600080fd5b6001600160a01b0383166000818152600460205260409081902060060183905551919250907ffee3e693fc72d0a0a673805f3e606c551f4c677b9072444b90dd2d0406bc995c90613da59084815260200190565b60405180910390a25050565b60008054604051631c2d8fb360e31b81527f6e58ad548d72b425ea94c15f453bf26caddb061d82b2551db7fdd3cefe0e994060048201526001600160a01b039091169063e16c7d989060240161366a565b6000613e0c61361d565b6001600160a01b0316638a19c8bc6040518163ffffffff1660e01b815260040160206040518083038186803b158015613e4457600080fd5b505afa158015613e58573d6000803e3d6000fd5b505050506040513d601f19601f82011682018060405250810190613e7c919061552f565b613e879060016155de565b9050613e9161468d565b8354600285015460038601546005870154865460405163e35c3e4360e01b81526001600160a01b038b811660048301526024820189905260448201969096529385166064850152608484019290925260a483015260c482015291169063e35c3e439060e401600060405180830381600087803b158015613f1057600080fd5b505af1158015613f24573d6000803e3d6000fd5b5050505050505050565b6006546040516304aa129960e41b81526007600482015273__$d23c89be677d40ab24c636937040b6165f$__90634aa129909060240160206040518083038186803b158015613f7c57600080fd5b505af4158015613f90573d6000803e3d6000fd5b505050506040513d601f19601f82011682018060405250810190613fb49190615573565b1561413f57604051633972059360e11b81526007600482015260009073__$d23c89be677d40ab24c636937040b6165f$__906372e40b269060240160206040518083038186803b15801561400757600080fd5b505af415801561401b573d6000803e3d6000fd5b505050506040513d601f19601f8201168201806040525081019061403f9190615595565b9050600061404c82612b58565b905080871161405d57505050612abe565b604051635d35e00760e01b8152600760048201526001600160a01b038316602482015273__$d23c89be677d40ab24c636937040b6165f$__90635d35e0079060440160006040518083038186803b1580156140b757600080fd5b505af41580156140cb573d6000803e3d6000fd5b5050506001600160a01b0383166000908152600460205260409020600601879055506140f78382613a2a565b9250816001600160a01b03167ffee3e693fc72d0a0a673805f3e606c551f4c677b9072444b90dd2d0406bc995c8760405161413491815260200190565b60405180910390a250505b6040516327dd54d360e11b815273__$d23c89be677d40ab24c636937040b6165f$__90634fbaa9a69061417f906007908a908a908990899060040161560d565b60006040518083038186803b15801561419757600080fd5b505af41580156141ab573d6000803e3d6000fd5b505050506141c2858261371690919063ffffffff16565b6001600160a01b03871660009081526004602081815260408084209283018990556005830189905560001960068401558884526003830190915290912087905590915060068290556040518581526001600160a01b038816907f65d72d782835d64c3287844a829608d5abdc7e864cc9affe96d910ab3db665e99060200160405180910390a250505050505050565b600054604051631c2d8fb360e31b81527fbd1aa3e8d2464256d7fd3dcf645c16418d5d8c51d971f1ad7d57e7b1b5eee23960048201526001600160a01b039091169063e16c7d989060240160206040518083038186803b1580156142b457600080fd5b505afa1580156142c8573d6000803e3d6000fd5b505050506040513d601f19601f820116820180604052508101906142ec9190615595565b6001600160a01b0316336001600160a01b031614610e735760405162461bcd60e51b815260206004820152601b60248201527f63616c6c6572206d757374206265205469636b657442726f6b657200000000006044820152606401610908565b61437e6040518060a0016040528060008152602001600081526020016000815260200160008152602001600081525090565b6143888383614f5f565b835460608201519192509015801561439f57508281105b156143b9576143ae8482614f5f565b606090810151908301525b600a84015460808301511580156143cf57508381105b156143e9576143de8582614f5f565b608090810151908401525b505092915050565b6000610d736b033b2e3c9fd0803ce8000000613c7a6144108686614fda565b8790614fc2565b6000611f896b033b2e3c9fd0803ce8000000613c7a8585614fc2565b608082015160608301516000906144545761444f600180614fda565b61445a565b83606001515b90508460040154600014156144915761448261447b828588600001546143f1565b8390613716565b85600401819055505050505050565b6144826144a3828588600001546143f1565b600487015490613716565b60008054906101000a90046001600160a01b03166001600160a01b0316638da5cb5b6040518163ffffffff1660e01b815260040160206040518083038186803b1580156144fa57600080fd5b505afa15801561450e573d6000803e3d6000fd5b505050506040513d601f19601f820116820180604052508101906145329190615595565b6001600160a01b0316336001600160a01b031614610e735760405162461bcd60e51b815260206004820152601f60248201527f63616c6c6572206d75737420626520436f6e74726f6c6c6572206f776e6572006044820152606401610908565b600054604051631c2d8fb360e31b81527fe8438ea868df48e3fc21f2f087b993c9b1837dc0f6135064161ce7d7a1701fe860048201526001600160a01b039091169063e16c7d989060240160206040518083038186803b1580156145f557600080fd5b505afa158015614609573d6000803e3d6000fd5b505050506040513d601f19601f8201168201806040525081019061462d9190615595565b6001600160a01b0316336001600160a01b031614610e735760405162461bcd60e51b815260206004820152601c60248201527f63616c6c6572206d75737420626520526f756e64734d616e61676572000000006044820152606401610908565b60008054604051631c2d8fb360e31b81527f2a1b465fbcae519904f0fb11f93e73dfbeb47ec54530ec444279610af8cf06b260048201526001600160a01b039091169063e16c7d989060240161366a565b60008054604051631c2d8fb360e31b81527f3443e257065fe41dd0e4d1f5a1b73a22a62e300962b57f30cddf41d0f8273ba760048201526001600160a01b039091169063e16c7d989060240161366a565b60008054604051631c2d8fb360e31b81527f6efca2866b731ee4984990bacad4cde10f1ef764fb54a5206bdfd291695b1a9b60048201526001600160a01b039091169063e16c7d989060240161366a565b614796816b033b2e3c9fd0803ce8000000101590565b6147f15760405162461bcd60e51b815260206004820152602660248201527f5f6375745261746520697320696e76616c696420707265636973652070657263604482015265656e7461676560d01b6064820152608401610908565b600d81905560405160008051602061567d83398151915290611e4f906020808252601e908201527f6e657874526f756e645472656173757279526577617264437574526174650000604082015260600190565b6001600160a01b038516600090815260046020908152604080832086845260038101909252822081549192909161487c908490614f5f565b6008840154600785018190558354919250111561489b5761489b6155b2565b60006148ab888460010154613c67565b905060006148b98983613a2a565b905060006148d082876007015487600001546143f1565b90506148ed83611d0983896008015461371690919063ffffffff16565b60088701556148fd858584614ff6565b6149098b8b8a8a614ce4565b5050505050505050505050565b6000546001600160a01b03163314610e735760405162461bcd60e51b815260206004820152601960248201527f63616c6c6572206d75737420626520436f6e74726f6c6c6572000000000000006044820152606401610908565b6001600160a01b03841660009081526004602052604081209061499286612b58565b905060006149a08287613a2a565b905060006149ad88610cc9565b60405163b0138c4760e01b8152600760048201526001600160a01b038a16602482015290915060009073__$d23c89be677d40ab24c636937040b6165f$__9063b0138c479060440160206040518083038186803b158015614a0d57600080fd5b505af4158015614a21573d6000803e3d6000fd5b505050506040513d601f19601f82011682018060405250810190614a459190615573565b90508015614acf57604051631c11bf7f60e11b815273__$d23c89be677d40ab24c636937040b6165f$__906338237efe90614a8d906007908d9088908d908d9060040161560d565b60006040518083038186803b158015614aa557600080fd5b505af4158015614ab9573d6000803e3d6000fd5b5050600654614acb9250905089613a2a565b6006555b8180614ad85750805b15614ba4576000614ae761361d565b6001600160a01b0316638a19c8bc6040518163ffffffff1660e01b815260040160206040518083038186803b158015614b1f57600080fd5b505afa158015614b33573d6000803e3d6000fd5b505050506040513d601f19601f82011682018060405250810190614b57919061552f565b90506000614b66826001613716565b90508187600401541015614b8857600082815260038801602052604090208690555b6004870181905560009081526003870160205260409020849055505b50506001600160a01b03909616600090815260036020819052604090912001959095555050505050565b6001600160a01b03808316600090815260036020908152604080832060028101549094168352600490915281206001808401548454600586015490959194919392614c199190613716565b60028401549091506001600160a01b039081169088168114878311614c5557614c4f84614c47856001613a2a565b8a8a8a615044565b90975095505b8015614c87576008840154614c6b908890613716565b9650614c8484600901548761371690919063ffffffff16565b95505b50505050509250929050565b60008054604051631c2d8fb360e31b81527f74b6d21e0d4650f622c903126d418c1a52bcc99ea7acb0db0809fc0eeae6c7c360048201526001600160a01b039091169063e16c7d989060240161366a565b6001600160a01b038416600090815260046020526040812090614d0686612b58565b90506000614d148287613716565b90506000614d2061361d565b6001600160a01b0316638a19c8bc6040518163ffffffff1660e01b815260040160206040518083038186803b158015614d5857600080fd5b505afa158015614d6c573d6000803e3d6000fd5b505050506040513d601f19601f82011682018060405250810190614d90919061552f565b90506000614d9f826001613716565b90506000614dac8a610cc9565b60405163b0138c4760e01b8152600760048201526001600160a01b038c16602482015290915060009073__$d23c89be677d40ab24c636937040b6165f$__9063b0138c479060440160206040518083038186803b158015614e0c57600080fd5b505af4158015614e20573d6000803e3d6000fd5b505050506040513d601f19601f82011682018060405250810190614e449190615573565b90508015614ed257604051631c11bf7f60e11b815273__$d23c89be677d40ab24c636937040b6165f$__906338237efe90614e8c906007908f908a908f908f9060040161560d565b60006040518083038186803b158015614ea457600080fd5b505af4158015614eb8573d6000803e3d6000fd5b5050600654614eca925090508b613716565b600655614eed565b614edb8b611f58565b15614eed57614eed8b86858c8c613f2e565b8180614ef65750805b15614f36578387600401541015614f1b57600084815260038801602052604090208690555b60008381526003880160205260409020859055600487018390555b5050506001600160a01b0390971660009081526003602081905260409091200155505050505050565b614f916040518060a0016040528060008152602001600081526020016000815260200160008152602001600081525090565b6000828152600393840160208181526040832095860154606085015293909152909152600490910154608082015290565b6000611f89828461563b565b6000611f89828461565a565b6000611f8982613c7a856b033b2e3c9fd0803ce8000000614fc2565b600082606001516000141561501557615010600180614fda565b61501b565b82606001515b905061503661502f828487600001546143f1565b8290613716565b846003018190555050505050565b60008060006150538888614f5f565b90506000615061898861434c565b905061506f8282888861507f565b9350935050509550959350505050565b60008061508d8686866150a6565b915061509b868686866150f3565b905094509492505050565b60008360600151600014156150c6576150c0600180614fda565b60608501525b60608301516150e0576150da600180614fda565b60608401525b610d7382846060015186606001516143f1565b60008460600151600014156151135761510d600180614fda565b60608601525b600061513e8461513488608001518860800151613a2a90919063ffffffff16565b88606001516143f1565b90506133df8382613716565b6001600160a01b03811681146115b957600080fd5b6000806000806080858703121561517557600080fd5b84356151808161514a565b93506020850135925060408501356151978161514a565b915060608501356151a78161514a565b939692955090935050565b60008060008060008060c087890312156151cb57600080fd5b86356151d68161514a565b95506020870135945060408701356151ed8161514a565b935060608701356151fd8161514a565b9250608087013561520d8161514a565b915060a087013561521d8161514a565b809150509295509295509295565b60006020828403121561523d57600080fd5b8135611f898161514a565b6000806040838503121561525b57600080fd5b82356152668161514a565b946020939093013593505050565b634e487b7160e01b600052602160045260246000fd5b602081016003831061529e5761529e615274565b91905290565b600080600080608085870312156152ba57600080fd5b84356152c58161514a565b935060208501356152d58161514a565b93969395505050506040820135916060013590565b6000602082840312156152fc57600080fd5b5035919050565b6000806000806080858703121561531957600080fd5b843593506020850135925060408501356151978161514a565b60008060006060848603121561534757600080fd5b83356153528161514a565b95602085013595506040909401359392505050565b6000806040838503121561537a57600080fd5b50508035926020909101359150565b60008060008060008060c087890312156153a257600080fd5b8635955060208701356153b48161514a565b945060408701356151ed8161514a565b6000806000606084860312156153d957600080fd5b8335925060208401356153eb8161514a565b915060408401356153fb8161514a565b809150509250925092565b6000806040838503121561541957600080fd5b82356154248161514a565b915060208301356154348161514a565b809150509250929050565b602081016002831061529e5761529e615274565b6000806040838503121561546657600080fd5b8235915060208301356154348161514a565b600080600080600080600060e0888a03121561549357600080fd5b8735965060208801356154a58161514a565b955060408801356154b58161514a565b945060608801356154c58161514a565b935060808801356154d58161514a565b925060a08801356154e58161514a565b915060c08801356154f58161514a565b8091505092959891949750929550565b60006020828403121561551757600080fd5b813567ffffffffffffffff81168114611f8957600080fd5b60006020828403121561554157600080fd5b5051919050565b60208082526011908201527024a72b20a624a22fa222a622a3a0aa27a960791b604082015260600190565b60006020828403121561558557600080fd5b81518015158114611f8957600080fd5b6000602082840312156155a757600080fd5b8151611f898161514a565b634e487b7160e01b600052600160045260246000fd5b634e487b7160e01b600052601160045260246000fd5b600082198211156155f1576155f16155c8565b500190565b600082821015615608576156086155c8565b500390565b9485526001600160a01b03938416602086015260408501929092528216606084015216608082015260a00190565b6000816000190483118215151615615655576156556155c8565b500290565b60008261567757634e487b7160e01b600052601260045260246000fd5b50049056fe9f5033568d78ae30f29f01e944f97b2216493bd19d1b46d429673acff3dcd674a2646970667358221220cadc9c881884cc8a54ad33e0f639d6a2a352894a540b3e56cc7938a541e7b3df64736f6c63430008090033",
  "linkReferences": {
    "contracts/libraries/SortedDoublyLL.sol": {
      "SortedDoublyLL": [
        {
          "length": 20,
          "start": 3992
        },
        {
          "length": 20,
          "start": 4928
        },
        {
          "length": 20,
          "start": 5745
        },
        {
          "length": 20,
          "start": 6713
        },
        {
          "length": 20,
          "start": 7964
        },
        {
          "length": 20,
          "start": 8035
        },
        {
          "length": 20,
          "start": 9908
        },
        {
          "length": 20,
          "start": 10772
        },
        {
          "length": 20,
          "start": 15681
        },
        {
          "length": 20,
          "start": 16355
        },
        {
          "length": 20,
          "start": 16494
        },
        {
          "length": 20,
          "start": 16670
        },
        {
          "length": 20,
          "start": 16874
        },
        {
          "length": 20,
          "start": 19060
        },
        {
          "length": 20,
          "start": 19192
        },
        {
          "length": 20,
          "start": 20083
        },
        {
          "length": 20,
          "start": 20215
        }
      ]
    }
  },
  "deployedLinkReferences": {
    "contracts/libraries/SortedDoublyLL.sol": {
      "SortedDoublyLL": [
        {
          "length": 20,
          "start": 3836
        },
        {
          "length": 20,
          "start": 4772
        },
        {
          "length": 20,
          "start": 5589
        },
        {
          "length": 20,
          "start": 6557
        },
        {
          "length": 20,
          "start": 7808
        },
        {
          "length": 20,
          "start": 7879
        },
        {
          "length": 20,
          "start": 9752
        },
        {
          "length": 20,
          "start": 10616
        },
        {
          "length": 20,
          "start": 15525
        },
        {
          "length": 20,
          "start": 16199
        },
        {
          "length": 20,
          "start": 16338
        },
        {
          "length": 20,
          "start": 16514
        },
        {
          "length": 20,
          "start": 16718
        },
        {
          "length": 20,
          "start": 18904
        },
        {
          "length": 20,
          "start": 19036
        },
        {
          "length": 20,
          "start": 19927
        },
        {
          "length": 20,
          "start": 20059
        }
      ]
    }
  }
}