{
  "_format": "hh-sol-artifact-1",
  "contractName": "LivepeerGovernor",
  "sourceName": "contracts/treasury/LivepeerGovernor.sol",
  "abi": [
    {
      "inputs": [
        {
          "internalType": "address",
          "name": "_controller",
          "type": "address"
        }
      ],
      "stateMutability": "nonpayable",
      "type": "constructor"
    },
    {
      "inputs": [],
      "name": "Empty",
      "type": "error"
    },
    {
      "inputs": [
        {
          "internalType": "uint8",
          "name": "voteType",
          "type": "uint8"
        }
      ],
      "name": "InvalidVoteType",
      "type": "error"
    },
    {
      "inputs": [],
      "name": "VoteAlreadyCast",
      "type": "error"
    },
    {
      "anonymous": false,
      "inputs": [],
      "name": "EIP712DomainChanged",
      "type": "event"
    },
    {
      "anonymous": false,
      "inputs": [
        {
          "indexed": false,
          "internalType": "uint8",
          "name": "version",
          "type": "uint8"
        }
      ],
      "name": "Initialized",
      "type": "event"
    },
    {
      "anonymous": false,
      "inputs": [
        {
          "indexed": false,
          "internalType": "string",
          "name": "param",
          "type": "string"
        }
      ],
      "name": "ParameterUpdate",
      "type": "event"
    },
    {
      "anonymous": false,
      "inputs": [
        {
          "indexed": false,
          "internalType": "uint256",
          "name": "proposalId",
          "type": "uint256"
        }
      ],
      "name": "ProposalCanceled",
      "type": "event"
    },
    {
      "anonymous": false,
      "inputs": [
        {
          "indexed": false,
          "internalType": "uint256",
          "name": "proposalId",
          "type": "uint256"
        },
        {
          "indexed": false,
          "internalType": "address",
          "name": "proposer",
          "type": "address"
        },
        {
          "indexed": false,
          "internalType": "address[]",
          "name": "targets",
          "type": "address[]"
        },
        {
          "indexed": false,
          "internalType": "uint256[]",
          "name": "values",
          "type": "uint256[]"
        },
        {
          "indexed": false,
          "internalType": "string[]",
          "name": "signatures",
          "type": "string[]"
        },
        {
          "indexed": false,
          "internalType": "bytes[]",
          "name": "calldatas",
          "type": "bytes[]"
        },
        {
          "indexed": false,
          "internalType": "uint256",
          "name": "voteStart",
          "type": "uint256"
        },
        {
          "indexed": false,
          "internalType": "uint256",
          "name": "voteEnd",
          "type": "uint256"
        },
        {
          "indexed": false,
          "internalType": "string",
          "name": "description",
          "type": "string"
        }
      ],
      "name": "ProposalCreated",
      "type": "event"
    },
    {
      "anonymous": false,
      "inputs": [
        {
          "indexed": false,
          "internalType": "uint256",
          "name": "proposalId",
          "type": "uint256"
        }
      ],
      "name": "ProposalExecuted",
      "type": "event"
    },
    {
      "anonymous": false,
      "inputs": [
        {
          "indexed": false,
          "internalType": "uint256",
          "name": "proposalId",
          "type": "uint256"
        },
        {
          "indexed": false,
          "internalType": "uint256",
          "name": "eta",
          "type": "uint256"
        }
      ],
      "name": "ProposalQueued",
      "type": "event"
    },
    {
      "anonymous": false,
      "inputs": [
        {
          "indexed": false,
          "internalType": "uint256",
          "name": "oldProposalThreshold",
          "type": "uint256"
        },
        {
          "indexed": false,
          "internalType": "uint256",
          "name": "newProposalThreshold",
          "type": "uint256"
        }
      ],
      "name": "ProposalThresholdSet",
      "type": "event"
    },
    {
      "anonymous": false,
      "inputs": [
        {
          "indexed": false,
          "internalType": "uint256",
          "name": "oldQuorumNumerator",
          "type": "uint256"
        },
        {
          "indexed": false,
          "internalType": "uint256",
          "name": "newQuorumNumerator",
          "type": "uint256"
        }
      ],
      "name": "QuorumNumeratorUpdated",
      "type": "event"
    },
    {
      "anonymous": false,
      "inputs": [
        {
          "indexed": false,
          "internalType": "address",
          "name": "controller",
          "type": "address"
        }
      ],
      "name": "SetController",
      "type": "event"
    },
    {
      "anonymous": false,
      "inputs": [
        {
          "indexed": false,
          "internalType": "address",
          "name": "oldTimelock",
          "type": "address"
        },
        {
          "indexed": false,
          "internalType": "address",
          "name": "newTimelock",
          "type": "address"
        }
      ],
      "name": "TimelockChange",
      "type": "event"
    },
    {
      "anonymous": false,
      "inputs": [
        {
          "indexed": true,
          "internalType": "address",
          "name": "voter",
          "type": "address"
        },
        {
          "indexed": false,
          "internalType": "uint256",
          "name": "proposalId",
          "type": "uint256"
        },
        {
          "indexed": false,
          "internalType": "uint8",
          "name": "support",
          "type": "uint8"
        },
        {
          "indexed": false,
          "internalType": "uint256",
          "name": "weight",
          "type": "uint256"
        },
        {
          "indexed": false,
          "internalType": "string",
          "name": "reason",
          "type": "string"
        }
      ],
      "name": "VoteCast",
      "type": "event"
    },
    {
      "anonymous": false,
      "inputs": [
        {
          "indexed": true,
          "internalType": "address",
          "name": "voter",
          "type": "address"
        },
        {
          "indexed": false,
          "internalType": "uint256",
          "name": "proposalId",
          "type": "uint256"
        },
        {
          "indexed": false,
          "internalType": "uint8",
          "name": "support",
          "type": "uint8"
        },
        {
          "indexed": false,
          "internalType": "uint256",
          "name": "weight",
          "type": "uint256"
        },
        {
          "indexed": false,
          "internalType": "string",
          "name": "reason",
          "type": "string"
        },
        {
          "indexed": false,
          "internalType": "bytes",
          "name": "params",
          "type": "bytes"
        }
      ],
      "name": "VoteCastWithParams",
      "type": "event"
    },
    {
      "anonymous": false,
      "inputs": [
        {
          "indexed": false,
          "internalType": "uint256",
          "name": "oldVotingDelay",
          "type": "uint256"
        },
        {
          "indexed": false,
          "internalType": "uint256",
          "name": "newVotingDelay",
          "type": "uint256"
        }
      ],
      "name": "VotingDelaySet",
      "type": "event"
    },
    {
      "anonymous": false,
      "inputs": [
        {
          "indexed": false,
          "internalType": "uint256",
          "name": "oldVotingPeriod",
          "type": "uint256"
        },
        {
          "indexed": false,
          "internalType": "uint256",
          "name": "newVotingPeriod",
          "type": "uint256"
        }
      ],
      "name": "VotingPeriodSet",
      "type": "event"
    },
    {
      "inputs": [],
      "name": "BALLOT_TYPEHASH",
      "outputs": [
        {
          "internalType": "bytes32",
          "name": "",
          "type": "bytes32"
        }
      ],
      "stateMutability": "view",
      "type": "function"
    },
    {
      "inputs": [],
      "name": "CLOCK_MODE",
      "outputs": [
        {
          "internalType": "string",
          "name": "",
          "type": "string"
        }
      ],
      "stateMutability": "view",
      "type": "function"
    },
    {
      "inputs": [],
      "name": "COUNTING_MODE",
      "outputs": [
        {
          "internalType": "string",
          "name": "",
          "type": "string"
        }
      ],
      "stateMutability": "pure",
      "type": "function"
    },
    {
      "inputs": [],
      "name": "EXTENDED_BALLOT_TYPEHASH",
      "outputs": [
        {
          "internalType": "bytes32",
          "name": "",
          "type": "bytes32"
        }
      ],
      "stateMutability": "view",
      "type": "function"
    },
    {
      "inputs": [],
      "name": "bumpGovernorVotesTokenAddress",
      "outputs": [],
      "stateMutability": "nonpayable",
      "type": "function"
    },
    {
      "inputs": [
        {
          "internalType": "address[]",
          "name": "targets",
          "type": "address[]"
        },
        {
          "internalType": "uint256[]",
          "name": "values",
          "type": "uint256[]"
        },
        {
          "internalType": "bytes[]",
          "name": "calldatas",
          "type": "bytes[]"
        },
        {
          "internalType": "bytes32",
          "name": "descriptionHash",
          "type": "bytes32"
        }
      ],
      "name": "cancel",
      "outputs": [
        {
          "internalType": "uint256",
          "name": "",
          "type": "uint256"
        }
      ],
      "stateMutability": "nonpayable",
      "type": "function"
    },
    {
      "inputs": [
        {
          "internalType": "uint256",
          "name": "proposalId",
          "type": "uint256"
        },
        {
          "internalType": "uint8",
          "name": "support",
          "type": "uint8"
        }
      ],
      "name": "castVote",
      "outputs": [
        {
          "internalType": "uint256",
          "name": "",
          "type": "uint256"
        }
      ],
      "stateMutability": "nonpayable",
      "type": "function"
    },
    {
      "inputs": [
        {
          "internalType": "uint256",
          "name": "proposalId",
          "type": "uint256"
        },
        {
          "internalType": "uint8",
          "name": "support",
          "type": "uint8"
        },
        {
          "internalType": "uint8",
          "name": "v",
          "type": "uint8"
        },
        {
          "internalType": "bytes32",
          "name": "r",
          "type": "bytes32"
        },
        {
          "internalType": "bytes32",
          "name": "s",
          "type": "bytes32"
        }
      ],
      "name": "castVoteBySig",
      "outputs": [
        {
          "internalType": "uint256",
          "name": "",
          "type": "uint256"
        }
      ],
      "stateMutability": "nonpayable",
      "type": "function"
    },
    {
      "inputs": [
        {
          "internalType": "uint256",
          "name": "proposalId",
          "type": "uint256"
        },
        {
          "internalType": "uint8",
          "name": "support",
          "type": "uint8"
        },
        {
          "internalType": "string",
          "name": "reason",
          "type": "string"
        }
      ],
      "name": "castVoteWithReason",
      "outputs": [
        {
          "internalType": "uint256",
          "name": "",
          "type": "uint256"
        }
      ],
      "stateMutability": "nonpayable",
      "type": "function"
    },
    {
      "inputs": [
        {
          "internalType": "uint256",
          "name": "proposalId",
          "type": "uint256"
        },
        {
          "internalType": "uint8",
          "name": "support",
          "type": "uint8"
        },
        {
          "internalType": "string",
          "name": "reason",
          "type": "string"
        },
        {
          "internalType": "bytes",
          "name": "params",
          "type": "bytes"
        }
      ],
      "name": "castVoteWithReasonAndParams",
      "outputs": [
        {
          "internalType": "uint256",
          "name": "",
          "type": "uint256"
        }
      ],
      "stateMutability": "nonpayable",
      "type": "function"
    },
    {
      "inputs": [
        {
          "internalType": "uint256",
          "name": "proposalId",
          "type": "uint256"
        },
        {
          "internalType": "uint8",
          "name": "support",
          "type": "uint8"
        },
        {
          "internalType": "string",
          "name": "reason",
          "type": "string"
        },
        {
          "internalType": "bytes",
          "name": "params",
          "type": "bytes"
        },
        {
          "internalType": "uint8",
          "name": "v",
          "type": "uint8"
        },
        {
          "internalType": "bytes32",
          "name": "r",
          "type": "bytes32"
        },
        {
          "internalType": "bytes32",
          "name": "s",
          "type": "bytes32"
        }
      ],
      "name": "castVoteWithReasonAndParamsBySig",
      "outputs": [
        {
          "internalType": "uint256",
          "name": "",
          "type": "uint256"
        }
      ],
      "stateMutability": "nonpayable",
      "type": "function"
    },
    {
      "inputs": [],
      "name": "clock",
      "outputs": [
        {
          "internalType": "uint48",
          "name": "",
          "type": "uint48"
        }
      ],
      "stateMutability": "view",
      "type": "function"
    },
    {
      "inputs": [],
      "name": "controller",
      "outputs": [
        {
          "internalType": "contract IController",
          "name": "",
          "type": "address"
        }
      ],
      "stateMutability": "view",
      "type": "function"
    },
    {
      "inputs": [],
      "name": "eip712Domain",
      "outputs": [
        {
          "internalType": "bytes1",
          "name": "fields",
          "type": "bytes1"
        },
        {
          "internalType": "string",
          "name": "name",
          "type": "string"
        },
        {
          "internalType": "string",
          "name": "version",
          "type": "string"
        },
        {
          "internalType": "uint256",
          "name": "chainId",
          "type": "uint256"
        },
        {
          "internalType": "address",
          "name": "verifyingContract",
          "type": "address"
        },
        {
          "internalType": "bytes32",
          "name": "salt",
          "type": "bytes32"
        },
        {
          "internalType": "uint256[]",
          "name": "extensions",
          "type": "uint256[]"
        }
      ],
      "stateMutability": "view",
      "type": "function"
    },
    {
      "inputs": [
        {
          "internalType": "address[]",
          "name": "targets",
          "type": "address[]"
        },
        {
          "internalType": "uint256[]",
          "name": "values",
          "type": "uint256[]"
        },
        {
          "internalType": "bytes[]",
          "name": "calldatas",
          "type": "bytes[]"
        },
        {
          "internalType": "bytes32",
          "name": "descriptionHash",
          "type": "bytes32"
        }
      ],
      "name": "execute",
      "outputs": [
        {
          "internalType": "uint256",
          "name": "",
          "type": "uint256"
        }
      ],
      "stateMutability": "payable",
      "type": "function"
    },
    {
      "inputs": [
        {
          "internalType": "address",
          "name": "account",
          "type": "address"
        },
        {
          "internalType": "uint256",
          "name": "timepoint",
          "type": "uint256"
        }
      ],
      "name": "getVotes",
      "outputs": [
        {
          "internalType": "uint256",
          "name": "",
          "type": "uint256"
        }
      ],
      "stateMutability": "view",
      "type": "function"
    },
    {
      "inputs": [
        {
          "internalType": "address",
          "name": "account",
          "type": "address"
        },
        {
          "internalType": "uint256",
          "name": "timepoint",
          "type": "uint256"
        },
        {
          "internalType": "bytes",
          "name": "params",
          "type": "bytes"
        }
      ],
      "name": "getVotesWithParams",
      "outputs": [
        {
          "internalType": "uint256",
          "name": "",
          "type": "uint256"
        }
      ],
      "stateMutability": "view",
      "type": "function"
    },
    {
      "inputs": [
        {
          "internalType": "uint256",
          "name": "_proposalId",
          "type": "uint256"
        },
        {
          "internalType": "address",
          "name": "_account",
          "type": "address"
        }
      ],
      "name": "hasVoted",
      "outputs": [
        {
          "internalType": "bool",
          "name": "",
          "type": "bool"
        }
      ],
      "stateMutability": "view",
      "type": "function"
    },
    {
      "inputs": [
        {
          "internalType": "address[]",
          "name": "targets",
          "type": "address[]"
        },
        {
          "internalType": "uint256[]",
          "name": "values",
          "type": "uint256[]"
        },
        {
          "internalType": "bytes[]",
          "name": "calldatas",
          "type": "bytes[]"
        },
        {
          "internalType": "bytes32",
          "name": "descriptionHash",
          "type": "bytes32"
        }
      ],
      "name": "hashProposal",
      "outputs": [
        {
          "internalType": "uint256",
          "name": "",
          "type": "uint256"
        }
      ],
      "stateMutability": "pure",
      "type": "function"
    },
    {
      "inputs": [
        {
          "internalType": "uint256",
          "name": "initialVotingDelay",
          "type": "uint256"
        },
        {
          "internalType": "uint256",
          "name": "initialVotingPeriod",
          "type": "uint256"
        },
        {
          "internalType": "uint256",
          "name": "initialProposalThreshold",
          "type": "uint256"
        },
        {
          "internalType": "uint256",
          "name": "initialQuorum",
          "type": "uint256"
        },
        {
          "internalType": "uint256",
          "name": "quota",
          "type": "uint256"
        }
      ],
      "name": "initialize",
      "outputs": [],
      "stateMutability": "nonpayable",
      "type": "function"
    },
    {
      "inputs": [],
      "name": "name",
      "outputs": [
        {
          "internalType": "string",
          "name": "",
          "type": "string"
        }
      ],
      "stateMutability": "view",
      "type": "function"
    },
    {
      "inputs": [
        {
          "internalType": "address",
          "name": "",
          "type": "address"
        },
        {
          "internalType": "address",
          "name": "",
          "type": "address"
        },
        {
          "internalType": "uint256[]",
          "name": "",
          "type": "uint256[]"
        },
        {
          "internalType": "uint256[]",
          "name": "",
          "type": "uint256[]"
        },
        {
          "internalType": "bytes",
          "name": "",
          "type": "bytes"
        }
      ],
      "name": "onERC1155BatchReceived",
      "outputs": [
        {
          "internalType": "bytes4",
          "name": "",
          "type": "bytes4"
        }
      ],
      "stateMutability": "nonpayable",
      "type": "function"
    },
    {
      "inputs": [
        {
          "internalType": "address",
          "name": "",
          "type": "address"
        },
        {
          "internalType": "address",
          "name": "",
          "type": "address"
        },
        {
          "internalType": "uint256",
          "name": "",
          "type": "uint256"
        },
        {
          "internalType": "uint256",
          "name": "",
          "type": "uint256"
        },
        {
          "internalType": "bytes",
          "name": "",
          "type": "bytes"
        }
      ],
      "name": "onERC1155Received",
      "outputs": [
        {
          "internalType": "bytes4",
          "name": "",
          "type": "bytes4"
        }
      ],
      "stateMutability": "nonpayable",
      "type": "function"
    },
    {
      "inputs": [
        {
          "internalType": "address",
          "name": "",
          "type": "address"
        },
        {
          "internalType": "address",
          "name": "",
          "type": "address"
        },
        {
          "internalType": "uint256",
          "name": "",
          "type": "uint256"
        },
        {
          "internalType": "bytes",
          "name": "",
          "type": "bytes"
        }
      ],
      "name": "onERC721Received",
      "outputs": [
        {
          "internalType": "bytes4",
          "name": "",
          "type": "bytes4"
        }
      ],
      "stateMutability": "nonpayable",
      "type": "function"
    },
    {
      "inputs": [
        {
          "internalType": "uint256",
          "name": "proposalId",
          "type": "uint256"
        }
      ],
      "name": "proposalDeadline",
      "outputs": [
        {
          "internalType": "uint256",
          "name": "",
          "type": "uint256"
        }
      ],
      "stateMutability": "view",
      "type": "function"
    },
    {
      "inputs": [
        {
          "internalType": "uint256",
          "name": "proposalId",
          "type": "uint256"
        }
      ],
      "name": "proposalEta",
      "outputs": [
        {
          "internalType": "uint256",
          "name": "",
          "type": "uint256"
        }
      ],
      "stateMutability": "view",
      "type": "function"
    },
    {
      "inputs": [
        {
          "internalType": "uint256",
          "name": "proposalId",
          "type": "uint256"
        }
      ],
      "name": "proposalProposer",
      "outputs": [
        {
          "internalType": "address",
          "name": "",
          "type": "address"
        }
      ],
      "stateMutability": "view",
      "type": "function"
    },
    {
      "inputs": [
        {
          "internalType": "uint256",
          "name": "proposalId",
          "type": "uint256"
        }
      ],
      "name": "proposalSnapshot",
      "outputs": [
        {
          "internalType": "uint256",
          "name": "",
          "type": "uint256"
        }
      ],
      "stateMutability": "view",
      "type": "function"
    },
    {
      "inputs": [],
      "name": "proposalThreshold",
      "outputs": [
        {
          "internalType": "uint256",
          "name": "",
          "type": "uint256"
        }
      ],
      "stateMutability": "view",
      "type": "function"
    },
    {
      "inputs": [
        {
          "internalType": "uint256",
          "name": "_proposalId",
          "type": "uint256"
        }
      ],
      "name": "proposalVotes",
      "outputs": [
        {
          "internalType": "uint256",
          "name": "againstVotes",
          "type": "uint256"
        },
        {
          "internalType": "uint256",
          "name": "forVotes",
          "type": "uint256"
        },
        {
          "internalType": "uint256",
          "name": "abstainVotes",
          "type": "uint256"
        }
      ],
      "stateMutability": "view",
      "type": "function"
    },
    {
      "inputs": [
        {
          "internalType": "address[]",
          "name": "targets",
          "type": "address[]"
        },
        {
          "internalType": "uint256[]",
          "name": "values",
          "type": "uint256[]"
        },
        {
          "internalType": "bytes[]",
          "name": "calldatas",
          "type": "bytes[]"
        },
        {
          "internalType": "string",
          "name": "description",
          "type": "string"
        }
      ],
      "name": "propose",
      "outputs": [
        {
          "internalType": "uint256",
          "name": "",
          "type": "uint256"
        }
      ],
      "stateMutability": "nonpayable",
      "type": "function"
    },
    {
      "inputs": [
        {
          "internalType": "address[]",
          "name": "targets",
          "type": "address[]"
        },
        {
          "internalType": "uint256[]",
          "name": "values",
          "type": "uint256[]"
        },
        {
          "internalType": "bytes[]",
          "name": "calldatas",
          "type": "bytes[]"
        },
        {
          "internalType": "bytes32",
          "name": "descriptionHash",
          "type": "bytes32"
        }
      ],
      "name": "queue",
      "outputs": [
        {
          "internalType": "uint256",
          "name": "",
          "type": "uint256"
        }
      ],
      "stateMutability": "nonpayable",
      "type": "function"
    },
    {
      "inputs": [
        {
          "internalType": "uint256",
          "name": "timepoint",
          "type": "uint256"
        }
      ],
      "name": "quorum",
      "outputs": [
        {
          "internalType": "uint256",
          "name": "",
          "type": "uint256"
        }
      ],
      "stateMutability": "view",
      "type": "function"
    },
    {
      "inputs": [],
      "name": "quorumDenominator",
      "outputs": [
        {
          "internalType": "uint256",
          "name": "",
          "type": "uint256"
        }
      ],
      "stateMutability": "view",
      "type": "function"
    },
    {
      "inputs": [
        {
          "internalType": "uint256",
          "name": "timepoint",
          "type": "uint256"
        }
      ],
      "name": "quorumNumerator",
      "outputs": [
        {
          "internalType": "uint256",
          "name": "",
          "type": "uint256"
        }
      ],
      "stateMutability": "view",
      "type": "function"
    },
    {
      "inputs": [],
      "name": "quorumNumerator",
      "outputs": [
        {
          "internalType": "uint256",
          "name": "",
          "type": "uint256"
        }
      ],
      "stateMutability": "view",
      "type": "function"
    },
    {
      "inputs": [],
      "name": "quota",
      "outputs": [
        {
          "internalType": "uint256",
          "name": "",
          "type": "uint256"
        }
      ],
      "stateMutability": "view",
      "type": "function"
    },
    {
      "inputs": [
        {
          "internalType": "address",
          "name": "target",
          "type": "address"
        },
        {
          "internalType": "uint256",
          "name": "value",
          "type": "uint256"
        },
        {
          "internalType": "bytes",
          "name": "data",
          "type": "bytes"
        }
      ],
      "name": "relay",
      "outputs": [],
      "stateMutability": "payable",
      "type": "function"
    },
    {
      "inputs": [
        {
          "internalType": "address",
          "name": "_controller",
          "type": "address"
        }
      ],
      "name": "setController",
      "outputs": [],
      "stateMutability": "nonpayable",
      "type": "function"
    },
    {
      "inputs": [
        {
          "internalType": "uint256",
          "name": "newProposalThreshold",
          "type": "uint256"
        }
      ],
      "name": "setProposalThreshold",
      "outputs": [],
      "stateMutability": "nonpayable",
      "type": "function"
    },
    {
      "inputs": [
        {
          "internalType": "uint256",
          "name": "newVotingDelay",
          "type": "uint256"
        }
      ],
      "name": "setVotingDelay",
      "outputs": [],
      "stateMutability": "nonpayable",
      "type": "function"
    },
    {
      "inputs": [
        {
          "internalType": "uint256",
          "name": "newVotingPeriod",
          "type": "uint256"
        }
      ],
      "name": "setVotingPeriod",
      "outputs": [],
      "stateMutability": "nonpayable",
      "type": "function"
    },
    {
      "inputs": [
        {
          "internalType": "uint256",
          "name": "proposalId",
          "type": "uint256"
        }
      ],
      "name": "state",
      "outputs": [
        {
          "internalType": "enum IGovernorUpgradeable.ProposalState",
          "name": "",
          "type": "uint8"
        }
      ],
      "stateMutability": "view",
      "type": "function"
    },
    {
      "inputs": [
        {
          "internalType": "bytes4",
          "name": "interfaceId",
          "type": "bytes4"
        }
      ],
      "name": "supportsInterface",
      "outputs": [
        {
          "internalType": "bool",
          "name": "",
          "type": "bool"
        }
      ],
      "stateMutability": "view",
      "type": "function"
    },
    {
      "inputs": [],
      "name": "targetContractId",
      "outputs": [
        {
          "internalType": "bytes32",
          "name": "",
          "type": "bytes32"
        }
      ],
      "stateMutability": "view",
      "type": "function"
    },
    {
      "inputs": [],
      "name": "timelock",
      "outputs": [
        {
          "internalType": "address",
          "name": "",
          "type": "address"
        }
      ],
      "stateMutability": "view",
      "type": "function"
    },
    {
      "inputs": [],
      "name": "token",
      "outputs": [
        {
          "internalType": "contract IERC5805Upgradeable",
          "name": "",
          "type": "address"
        }
      ],
      "stateMutability": "view",
      "type": "function"
    },
    {
      "inputs": [
        {
          "internalType": "uint256",
          "name": "newQuorumNumerator",
          "type": "uint256"
        }
      ],
      "name": "updateQuorumNumerator",
      "outputs": [],
      "stateMutability": "nonpayable",
      "type": "function"
    },
    {
      "inputs": [
        {
          "internalType": "contract TimelockControllerUpgradeable",
          "name": "newTimelock",
          "type": "address"
        }
      ],
      "name": "updateTimelock",
      "outputs": [],
      "stateMutability": "nonpayable",
      "type": "function"
    },
    {
      "inputs": [],
      "name": "version",
      "outputs": [
        {
          "internalType": "string",
          "name": "",
          "type": "string"
        }
      ],
      "stateMutability": "view",
      "type": "function"
    },
    {
      "inputs": [],
      "name": "votes",
      "outputs": [
        {
          "internalType": "contract IVotes",
          "name": "",
          "type": "address"
        }
      ],
      "stateMutability": "view",
      "type": "function"
    },
    {
      "inputs": [],
      "name": "votingDelay",
      "outputs": [
        {
          "internalType": "uint256",
          "name": "",
          "type": "uint256"
        }
      ],
      "stateMutability": "view",
      "type": "function"
    },
    {
      "inputs": [],
      "name": "votingPeriod",
      "outputs": [
        {
          "internalType": "uint256",
          "name": "",
          "type": "uint256"
        }
      ],
      "stateMutability": "view",
      "type": "function"
    },
    {
      "stateMutability": "payable",
      "type": "receive"
    }
  ],
  "bytecode": "0x60806040523480156200001157600080fd5b50604051620053e0380380620053e0833981016040819052620000349162000121565b600080546001600160a01b0319166001600160a01b0383161790556200005962000060565b5062000153565b600254610100900460ff1615620000cd5760405162461bcd60e51b815260206004820152602760248201527f496e697469616c697a61626c653a20636f6e747261637420697320696e697469604482015266616c697a696e6760c81b606482015260840160405180910390fd5b60025460ff908116146200011f576002805460ff191660ff9081179091556040519081527f7f26b83ff96e1f2b6a682f133852f6798a09c465da95921460cefb38474024989060200160405180910390a15b565b6000602082840312156200013457600080fd5b81516001600160a01b03811681146200014c57600080fd5b9392505050565b61527d80620001636000396000f3fe60806040526004361061031e5760003560e01c806384b0196e116101ab578063c59057e4116100f7578063ea0217cf11610095578063f23a6e611161006f578063f23a6e6114610a8c578063f77c479114610ab8578063f8ce560a14610ad8578063fc0c546a14610af857600080fd5b8063ea0217cf14610a2c578063eb9019d414610a4c578063ece40cc114610a6c57600080fd5b8063dcbab608116100d1578063dcbab608146109ae578063dd4e2ba5146109ce578063deaaa7cc146109e3578063e168c3ec14610a1757600080fd5b8063c59057e414610958578063cebe09c914610978578063d33219b41461098f57600080fd5b8063a890c91011610164578063b70f941f1161013e578063b70f941f146108ca578063bc197c81146108df578063c01f9e371461090b578063c28bc2fa1461094557600080fd5b8063a890c91014610875578063ab58fb8e14610895578063b58131b0146108b557600080fd5b806384b0196e146107b657806391ddadf4146107de57806392eefe9b1461080a57806397c3d3341461082a5780639a802a6d14610840578063a7713a701461086057600080fd5b80633e4f49e61161026a57806354fd4d501161022357806360c4247f116101fd57806360c4247f1461073657806370b0f660146107565780637b3c71d3146107765780637d5e81e21461079657600080fd5b806354fd4d50146106cc57806356781388146106f65780635f398a141461071657600080fd5b80633e4f49e6146105b357806343859632146105e0578063452115d61461062b5780634bf5d7e91461064b57806351720b4114610660578063544ffc9c1461067657600080fd5b8063150b7a02116102d75780632d63f693116102b15780632d63f693146105125780632fe3e261146105495780633932abb11461057d5780633bccf4fd1461059357600080fd5b8063150b7a021461049b578063160cbed7146104df5780632656227d146104ff57600080fd5b806301ffc9a71461038e57806302a251a3146103c357806303420181146103e357806306f3f9e61461040357806306fdde0314610423578063143489d01461044557600080fd5b36610389573061032c610b19565b6001600160a01b0316146103875760405162461bcd60e51b815260206004820152601f60248201527f476f7665726e6f723a206d7573742073656e6420746f206578656375746f720060448201526064015b60405180910390fd5b005b600080fd5b34801561039a57600080fd5b506103ae6103a93660046141ee565b610b33565b60405190151581526020015b60405180910390f35b3480156103cf57600080fd5b50610132545b6040519081526020016103ba565b3480156103ef57600080fd5b506103d56103fe36600461433c565b610b44565b34801561040f57600080fd5b5061038761041e3660046143e2565b610c3c565b34801561042f57600080fd5b50610438610ccc565b6040516103ba9190614457565b34801561045157600080fd5b506104836104603660046143e2565b60009081526101006020526040902054600160401b90046001600160a01b031690565b6040516001600160a01b0390911681526020016103ba565b3480156104a757600080fd5b506104c66104b636600461447f565b630a85bd0160e11b949350505050565b6040516001600160e01b031990911681526020016103ba565b3480156104eb57600080fd5b506103d56104fa366004614656565b610d5e565b6103d561050d366004614656565b610f81565b34801561051e57600080fd5b506103d561052d3660046143e2565b600090815261010060205260409020546001600160401b031690565b34801561055557600080fd5b506103d57fb3b3f3b703cd84ce352197dcff232b1b5d3cfb2025ce47cf04742d0651f1af8881565b34801561058957600080fd5b50610131546103d5565b34801561059f57600080fd5b506103d56105ae3660046146e5565b611074565b3480156105bf57600080fd5b506105d36105ce3660046143e2565b6110ec565b6040516103ba9190614749565b3480156105ec57600080fd5b506103ae6105fb366004614771565b60008281526101fa602090815260408083206001600160a01b038516845260030190915290205460ff1692915050565b34801561063757600080fd5b506103d5610646366004614656565b6110f7565b34801561065757600080fd5b50610438611209565b34801561066c57600080fd5b506103d560015481565b34801561068257600080fd5b506106b16106913660046143e2565b60009081526101fa60205260409020805460018201546002909201549092565b604080519384526020840192909252908201526060016103ba565b3480156106d857600080fd5b506040805180820190915260018152603160f81b6020820152610438565b34801561070257600080fd5b506103d56107113660046147a1565b6112c5565b34801561072257600080fd5b506103d56107313660046147cd565b6112ee565b34801561074257600080fd5b506103d56107513660046143e2565b611338565b34801561076257600080fd5b506103876107713660046143e2565b6113eb565b34801561078257600080fd5b506103d5610791366004614850565b611478565b3480156107a257600080fd5b506103d56107b13660046148a9565b6114c0565b3480156107c257600080fd5b506107cb61189c565b6040516103ba9796959493929190614998565b3480156107ea57600080fd5b506107f361193a565b60405165ffffffffffff90911681526020016103ba565b34801561081657600080fd5b506103876108253660046149fa565b6119bd565b34801561083657600080fd5b50620f42406103d5565b34801561084c57600080fd5b506103d561085b366004614a17565b611a19565b34801561086c57600080fd5b506103d5611a30565b34801561088157600080fd5b506103876108903660046149fa565b611a5d565b3480156108a157600080fd5b506103d56108b03660046143e2565b611aea565b3480156108c157600080fd5b506103d5611b95565b3480156108d657600080fd5b50610387611ba1565b3480156108eb57600080fd5b506104c66108fa366004614a6f565b63bc197c8160e01b95945050505050565b34801561091757600080fd5b506103d56109263660046143e2565b600090815261010060205260409020600101546001600160401b031690565b610387610953366004614b02565b611bcc565b34801561096457600080fd5b506103d5610973366004614656565b611ce1565b34801561098457600080fd5b506103d56101fb5481565b34801561099b57600080fd5b50610163546001600160a01b0316610483565b3480156109ba57600080fd5b506103876109c9366004614b45565b611d1b565b3480156109da57600080fd5b50610438611e97565b3480156109ef57600080fd5b506103d57f150214d74d59b7d1e90c73fc22ef3d991dd0a76b046543d4d80ab92d2a50328f81565b348015610a2357600080fd5b50610483611eb7565b348015610a3857600080fd5b50610387610a473660046143e2565b611ec1565b348015610a5857600080fd5b506103d5610a67366004614b80565b611f4e565b348015610a7857600080fd5b50610387610a873660046143e2565b611f6f565b348015610a9857600080fd5b506104c6610aa7366004614bac565b63f23a6e6160e01b95945050505050565b348015610ac457600080fd5b50600054610483906001600160a01b031681565b348015610ae457600080fd5b506103d5610af33660046143e2565b611ffc565b348015610b0457600080fd5b5061019554610483906001600160a01b031681565b6000610b2e610163546001600160a01b031690565b905090565b6000610b3e8261209c565b92915050565b600080610be8610be07fb3b3f3b703cd84ce352197dcff232b1b5d3cfb2025ce47cf04742d0651f1af888c8c8c8c604051610b80929190614c14565b60405180910390208b80519060200120604051602001610bc5959493929190948552602085019390935260ff9190911660408401526060830152608082015260a00190565b604051602081830303815290604052805190602001206120c1565b8686866120ee565b9050610c2e8a828b8b8b8080601f0160208091040260200160405190810160405280939291908181526020018383808284376000920191909152508d925061210c915050565b9a9950505050505050505050565b610c44610b19565b6001600160a01b0316336001600160a01b031614610c745760405162461bcd60e51b815260040161037e90614c24565b30610c7d610b19565b6001600160a01b031614610cc05760008036604051610c9d929190614c14565b604051809103902090505b80610cb461010161225f565b14610cbe57610ca8565b505b610cc9816122de565b50565b606060ff8054610cdb90614c5b565b80601f0160208091040260200160405190810160405280929190818152602001828054610d0790614c5b565b8015610d545780601f10610d2957610100808354040283529160200191610d54565b820191906000526020600020905b815481529060010190602001808311610d3757829003601f168201915b5050505050905090565b600080610d6d86868686611ce1565b90506004610d7a826110ec565b6007811115610d8b57610d8b614733565b14610da85760405162461bcd60e51b815260040161037e90614c96565b610163546040805163793d064960e11b815290516000926001600160a01b03169163f27a0c92916004808301926020929190829003018186803b158015610dee57600080fd5b505afa158015610e02573d6000803e3d6000fd5b505050506040513d601f19601f82011682018060405250810190610e269190614cd7565b6101635460405163b1c5f42760e01b81529192506001600160a01b03169063b1c5f42790610e61908a908a908a906000908b90600401614d7e565b60206040518083038186803b158015610e7957600080fd5b505afa158015610e8d573d6000803e3d6000fd5b505050506040513d601f19601f82011682018060405250810190610eb19190614cd7565b60008381526101646020526040808220929092556101635491516308f2a0bb60e41b81526001600160a01b0390921691638f2a0bb091610efe918b918b918b91908b908990600401614dcc565b600060405180830381600087803b158015610f1857600080fd5b505af1158015610f2c573d6000803e3d6000fd5b505050507f9a2e42fd6722813d69113e7d0079d3d940171428df7373df9c7f7617cfda2892828242610f5e9190614e3a565b604080519283526020830191909152015b60405180910390a15095945050505050565b600080610f9086868686611ce1565b90506000610f9d826110ec565b90506004816007811115610fb357610fb3614733565b1480610fd057506005816007811115610fce57610fce614733565b145b610fec5760405162461bcd60e51b815260040161037e90614c96565b6000828152610100602052604090819020600201805460ff19166001179055517f712ae1383f79ac853f8d882153778e0260ef8f03b504e2866e0593e04d2b291f9061103b9084815260200190565b60405180910390a16110508288888888612451565b61105d82888888886124f3565b61106a8288888888612500565b5095945050505050565b604080517f150214d74d59b7d1e90c73fc22ef3d991dd0a76b046543d4d80ab92d2a50328f602082015290810186905260ff8516606082015260009081906110c290610be090608001610bc5565b90506110df8782886040518060200160405280600081525061253b565b9150505b95945050505050565b6000610b3e8261255e565b60008061110686868686611ce1565b90506000611113826110ec565b600781111561112457611124614733565b146111715760405162461bcd60e51b815260206004820152601c60248201527f476f7665726e6f723a20746f6f206c61746520746f2063616e63656c00000000604482015260640161037e565b60008181526101006020526040902054600160401b90046001600160a01b0316336001600160a01b0316146111f35760405162461bcd60e51b815260206004820152602260248201527f476f7665726e6f723a206f6e6c792070726f706f7365722063616e2063616e63604482015261195b60f21b606482015260840161037e565b6111ff868686866126c9565b9695505050505050565b6101955460408051634bf5d7e960e01b815290516060926001600160a01b031691634bf5d7e9916004808301926000929190829003018186803b15801561124f57600080fd5b505afa92505050801561128457506040513d6000823e601f3d908101601f191682016040526112819190810190614e52565b60015b6112c0575060408051808201909152601d81527f6d6f64653d626c6f636b6e756d6265722666726f6d3d64656661756c74000000602082015290565b919050565b6000803390506112e68482856040518060200160405280600081525061253b565b949350505050565b6000803390506110df87828888888080601f0160208091040260200160405190810160405280939291908181526020018383808284376000920191909152508a925061210c915050565b6101c9546000908061134f5750506101c854919050565b60006101c961135f600184614ebf565b8154811061136f5761136f614ed6565b60009182526020918290206040805180820190915291015463ffffffff8116808352600160201b9091046001600160e01b031692820192909252915084106113c557602001516001600160e01b03169392505050565b6113da6113d1856126d7565b6101c990612740565b6001600160e01b0316949350505050565b6113f3610b19565b6001600160a01b0316336001600160a01b0316146114235760405162461bcd60e51b815260040161037e90614c24565b3061142c610b19565b6001600160a01b03161461146f576000803660405161144c929190614c14565b604051809103902090505b8061146361010161225f565b1461146d57611457565b505b610cc9816127f4565b6000803390506111ff86828787878080601f01602080910402602001604051908101604052809392919081815260200183838082843760009201919091525061253b92505050565b6000336114cd8184612837565b6115195760405162461bcd60e51b815260206004820152601d60248201527f476f7665726e6f723a2070726f706f7365722072657374726963746564000000604482015260640161037e565b600061152361193a565b65ffffffffffff169050611535611b95565b61154483610a67600185614ebf565b10156115ac5760405162461bcd60e51b815260206004820152603160248201527f476f7665726e6f723a2070726f706f73657220766f7465732062656c6f7720706044820152701c9bdc1bdcd85b081d1a1c995cda1bdb19607a1b606482015260840161037e565b60006115c18888888880519060200120611ce1565b905086518851146115e45760405162461bcd60e51b815260040161037e90614eec565b85518851146116055760405162461bcd60e51b815260040161037e90614eec565b60008851116116565760405162461bcd60e51b815260206004820152601860248201527f476f7665726e6f723a20656d7074792070726f706f73616c0000000000000000604482015260640161037e565b600081815261010060205260409020546001600160401b0316156116c65760405162461bcd60e51b815260206004820152602160248201527f476f7665726e6f723a2070726f706f73616c20616c72656164792065786973746044820152607360f81b606482015260840161037e565b60006116d26101315490565b6116dc9084614e3a565b905060006116ea6101325490565b6116f49083614e3a565b90506040518060e0016040528061170a84612928565b6001600160401b031681526001600160a01b03871660208201526000604082015260600161173783612928565b6001600160401b0390811682526000602080840182905260408085018390526060948501839052888352610100808352928190208651815493880151888401519187166001600160e01b031990951694909417600160401b6001600160a01b039095168502176001600160e01b0316600160e01b60e09290921c91909102178155948601516080870151908516911c90910217600184015560a08401516002909301805460c09095015161ffff1990951693151561ff00191693909317931515029290921790558a517f7d84a6263ae0d98d3329bd7b46bb4e8d6f98cd35a7adb45c274c8b7fd5ebd5e091859188918e918e9181111561183957611839614271565b60405190808252806020026020018201604052801561186c57816020015b60608152602001906001900390816118575790505b508d88888f60405161188699989796959493929190614f2d565b60405180910390a1509098975050505050505050565b6000606080600080600060606067546000801b1480156118bc5750606854155b6119005760405162461bcd60e51b81526020600482015260156024820152741152540dcc4c8e88155b9a5b9a5d1a585b1a5e9959605a1b604482015260640161037e565b611908612990565b61191061299f565b60408051600080825260208201909252600f60f81b9b939a50919850469750309650945092509050565b61019554604080516324776b7d60e21b815290516000926001600160a01b0316916391ddadf4916004808301926020929190829003018186803b15801561198057600080fd5b505afa9250505080156119b0575060408051601f3d908101601f191682019092526119ad91810190615004565b60015b6112c057610b2e436129ae565b6119c5612a15565b600080546001600160a01b0319166001600160a01b0383169081179091556040519081527f4ff638452bbf33c012645d18ae6f05515ff5f2d1dfb0cece8cbf018c60903f709060200160405180910390a150565b6000611a26848484612a71565b90505b9392505050565b6101c95460009015611a5557611a476101c9612af7565b6001600160e01b0316905090565b506101c85490565b611a65610b19565b6001600160a01b0316336001600160a01b031614611a955760405162461bcd60e51b815260040161037e90614c24565b30611a9e610b19565b6001600160a01b031614611ae15760008036604051611abe929190614c14565b604051809103902090505b80611ad561010161225f565b14611adf57611ac9565b505b610cc981612b27565b610163546000828152610164602052604080822054905163d45c443560e01b81526004810191909152909182916001600160a01b039091169063d45c44359060240160206040518083038186803b158015611b4457600080fd5b505afa158015611b58573d6000803e3d6000fd5b505050506040513d601f19601f82011682018060405250810190611b7c9190614cd7565b905080600114611b8c5780611a29565b60009392505050565b6000610b2e6101335490565b611ba9611eb7565b61019580546001600160a01b0319166001600160a01b0392909216919091179055565b611bd4610b19565b6001600160a01b0316336001600160a01b031614611c045760405162461bcd60e51b815260040161037e90614c24565b30611c0d610b19565b6001600160a01b031614611c505760008036604051611c2d929190614c14565b604051809103902090505b80611c4461010161225f565b14611c4e57611c38565b505b600080856001600160a01b0316858585604051611c6e929190614c14565b60006040518083038185875af1925050503d8060008114611cab576040519150601f19603f3d011682016040523d82523d6000602084013e611cb0565b606091505b5091509150611cd882826040518060600160405280602881526020016151f860289139612b92565b50505050505050565b600084848484604051602001611cfa949392919061502c565b60408051601f19818403018152919052805160209091012095945050505050565b600254610100900460ff1615808015611d3b5750600254600160ff909116105b80611d555750303b158015611d55575060025460ff166001145b611db85760405162461bcd60e51b815260206004820152602e60248201527f496e697469616c697a61626c653a20636f6e747261637420697320616c72656160448201526d191e481a5b9a5d1a585b1a5e995960921b606482015260840161037e565b6002805460ff191660011790558015611ddb576002805461ff0019166101001790555b611e0c6040518060400160405280601081526020016f2634bb32b832b2b923b7bb32b93737b960811b815250612bab565b611e17868686612c02565b611e27611e22612c39565b612cd6565b611e37611e32611eb7565b612d06565b611e4083612d36565b611e4982612d66565b8015611e8f576002805461ff0019169055604051600181527f7f26b83ff96e1f2b6a682f133852f6798a09c465da95921460cefb38474024989060200160405180910390a15b505050505050565b606060405180606001604052806028815260200161522060289139905090565b6000610b2e612d96565b611ec9610b19565b6001600160a01b0316336001600160a01b031614611ef95760405162461bcd60e51b815260040161037e90614c24565b30611f02610b19565b6001600160a01b031614611f455760008036604051611f22929190614c14565b604051809103902090505b80611f3961010161225f565b14611f4357611f2d565b505b610cc981612de7565b6000611a298383611f6a60408051602081019091526000815290565b612a71565b611f77610b19565b6001600160a01b0316336001600160a01b031614611fa75760405162461bcd60e51b815260040161037e90614c24565b30611fb0610b19565b6001600160a01b031614611ff35760008036604051611fd0929190614c14565b604051809103902090505b80611fe761010161225f565b14611ff157611fdb565b505b610cc981612e8a565b6000620f424061200b83611338565b61019554604051632394e7a360e21b8152600481018690526001600160a01b0390911690638e539e8c9060240160206040518083038186803b15801561205057600080fd5b505afa158015612064573d6000803e3d6000fd5b505050506040513d601f19601f820116820180604052508101906120889190614cd7565b6120929190615077565b610b3e91906150ac565b60006001600160e01b03198216636e665ced60e01b1480610b3e5750610b3e82612ecd565b6000610b3e6120ce612f69565b8360405161190160f01b8152600281019290925260228201526042902090565b60008060006120ff87878787612f73565b9150915061106a81613037565b6000858152610100602052604081206001612126886110ec565b600781111561213757612137614733565b146121905760405162461bcd60e51b815260206004820152602360248201527f476f7665726e6f723a20766f7465206e6f742063757272656e746c792061637460448201526269766560e81b606482015260840161037e565b80546000906121aa9088906001600160401b031686612a71565b90506121b98888888488613185565b835161220b57866001600160a01b03167fb8e138887d0aa13bab447e82de9d5c1777041ecd21ca36ba824ff1e6c07ddda4898884896040516121fe94939291906150ce565b60405180910390a26110df565b866001600160a01b03167fe2babfbac5889a709b63bb7f598b324e08bc5a4fb9ec647fb3cbc9ec07eb8712898884898960405161224c9594939291906150f6565b60405180910390a2979650505050505050565b600061227a8254600f81810b600160801b909204900b131590565b1561229857604051631ed9509560e11b815260040160405180910390fd5b508054600f0b6000818152600180840160205260408220805492905583546fffffffffffffffffffffffffffffffff191692016001600160801b03169190911790915590565b620f42408111156123635760405162461bcd60e51b815260206004820152604360248201527f476f7665726e6f72566f74657351756f72756d4672616374696f6e3a2071756f60448201527f72756d4e756d657261746f72206f7665722071756f72756d44656e6f6d696e616064820152623a37b960e91b608482015260a40161037e565b600061236d611a30565b9050801580159061237f57506101c954155b156123e45760408051808201909152600081526101c990602081016123a3846132e3565b6001600160e01b039081169091528254600181018455600093845260209384902083519490930151909116600160201b0263ffffffff909316929092179101555b6124126123ff6123f261193a565b65ffffffffffff166126d7565b612408846132e3565b6101c9919061334c565b505060408051828152602081018490527f0553476bf02ef2726e8ce5ced78d63e26e602e4a2257b1f559418e24b4633997910160405180910390a15050565b3061245a610b19565b6001600160a01b0316146124ec5760005b8451811015611e8f57306001600160a01b031685828151811061249057612490614ed6565b60200260200101516001600160a01b031614156124dc576124dc8382815181106124bc576124bc614ed6565b60200260200101518051906020012061010161336790919063ffffffff16565b6124e58161513c565b905061246b565b5050505050565b6124ec85858585856133a3565b30612509610b19565b6001600160a01b0316146124ec5761010154600f81810b600160801b909204900b13156124ec576000610101556124ec565b60006110e38585858561255960408051602081019091526000815290565b61210c565b60008061256a83613418565b9050600481600781111561258057612580614733565b1461258b5792915050565b60008381526101646020526040902054806125a7575092915050565b61016354604051632ab0f52960e01b8152600481018390526001600160a01b0390911690632ab0f5299060240160206040518083038186803b1580156125ec57600080fd5b505afa158015612600573d6000803e3d6000fd5b505050506040513d601f19601f820116820180604052508101906126249190615157565b15612633575060079392505050565b61016354604051632c258a9f60e11b8152600481018390526001600160a01b039091169063584b153e9060240160206040518083038186803b15801561267857600080fd5b505afa15801561268c573d6000803e3d6000fd5b505050506040513d601f19601f820116820180604052508101906126b09190615157565b156126bf575060059392505050565b5060029392505050565b60006110e385858585613549565b600063ffffffff82111561273c5760405162461bcd60e51b815260206004820152602660248201527f53616665436173743a2076616c756520646f65736e27742066697420696e203360448201526532206269747360d01b606482015260840161037e565b5090565b81546000908181600581111561279d57600061275b846135ff565b6127659085614ebf565b60008881526020902090915081015463ffffffff908116908716101561278d5780915061279b565b612798816001614e3a565b92505b505b60006127ab878785856136e4565b905080156127e6576127d0876127c2600184614ebf565b600091825260209091200190565b54600160201b90046001600160e01b03166127e9565b60005b979650505050505050565b6101315460408051918252602082018390527fc565b045403dc03c2eea82b81a0465edad9e2e7fc4d97e11421c209da93d7a93910160405180910390a161013155565b8051600090603481101561284f576001915050610b3e565b82810160131901516001600160a01b031981166b046e0e4dee0dee6cae47a60f60a31b1461288257600192505050610b3e565b600080612890602885614ebf565b90505b83811015612907576000806128c78884815181106128b3576128b3614ed6565b01602001516001600160f81b031916613742565b91509150816128df5760019650505050505050610b3e565b8060ff166004856001600160a01b0316901b1793505050806129009061513c565b9050612893565b50856001600160a01b0316816001600160a01b031614935050505092915050565b60006001600160401b0382111561273c5760405162461bcd60e51b815260206004820152602660248201527f53616665436173743a2076616c756520646f65736e27742066697420696e203660448201526534206269747360d01b606482015260840161037e565b606060698054610cdb90614c5b565b6060606a8054610cdb90614c5b565b600065ffffffffffff82111561273c5760405162461bcd60e51b815260206004820152602660248201527f53616665436173743a2076616c756520646f65736e27742066697420696e203460448201526538206269747360d01b606482015260840161037e565b6000546001600160a01b03163314612a6f5760405162461bcd60e51b815260206004820152601960248201527f63616c6c6572206d75737420626520436f6e74726f6c6c657200000000000000604482015260640161037e565b565b61019554604051630748d63560e31b81526001600160a01b038581166004830152602482018590526000921690633a46b1a89060440160206040518083038186803b158015612abf57600080fd5b505afa158015612ad3573d6000803e3d6000fd5b505050506040513d601f19601f82011682018060405250810190611a269190614cd7565b80546000908015611b8c57612b11836127c2600184614ebf565b54600160201b90046001600160e01b0316611a29565b61016354604080516001600160a01b03928316815291831660208301527f08f74ea46ef7894f65eabfb5e6e695de773a000b47c529ab559178069b226401910160405180910390a161016380546001600160a01b0319166001600160a01b0392909216919091179055565b60608315612ba1575081611a29565b611a2983836137d4565b600254610100900460ff16612bd25760405162461bcd60e51b815260040161037e90615179565b612bf981612bf46040805180820190915260018152603160f81b602082015290565b613802565b610cc98161385f565b600254610100900460ff16612c295760405162461bcd60e51b815260040161037e90615179565b612c34838383613899565b505050565b60008054604051631c2d8fb360e31b81527f6efca2866b731ee4984990bacad4cde10f1ef764fb54a5206bdfd291695b1a9b60048201526001600160a01b039091169063e16c7d98906024015b60206040518083038186803b158015612c9e57600080fd5b505afa158015612cb2573d6000803e3d6000fd5b505050506040513d601f19601f82011682018060405250810190610b2e91906151c4565b600254610100900460ff16612cfd5760405162461bcd60e51b815260040161037e90615179565b610cc9816138db565b600254610100900460ff16612d2d5760405162461bcd60e51b815260040161037e90615179565b610cc981613902565b600254610100900460ff16612d5d5760405162461bcd60e51b815260040161037e90615179565b610cc981613929565b600254610100900460ff16612d8d5760405162461bcd60e51b815260040161037e90615179565b610cc981613950565b60008054604051631c2d8fb360e31b81527f2a1b465fbcae519904f0fb11f93e73dfbeb47ec54530ec444279610af8cf06b260048201526001600160a01b039091169063e16c7d9890602401612c86565b60008111612e475760405162461bcd60e51b815260206004820152602760248201527f476f7665726e6f7253657474696e67733a20766f74696e6720706572696f6420604482015266746f6f206c6f7760c81b606482015260840161037e565b6101325460408051918252602082018390527f7e3f7f0708a84de9203036abaa450dccc85ad5ff52f78c170f3edb55cf5e8828910160405180910390a161013255565b6101335460408051918252602082018390527fccb45da8d5717e6c4544694297c4ba5cf151d455c9bb0ed4fc7a38411bc05461910160405180910390a161013355565b600063288ace0360e11b6318df743f60e31b63bf26d89760e01b6379dd796f60e01b6001600160e01b03198616821480612f1357506001600160e01b0319868116908216145b80612f2a57506001600160e01b0319868116908516145b80612f4557506001600160e01b03198616630271189760e51b145b806111ff57506301ffc9a760e01b6001600160e01b03198716149695505050505050565b6000610b2e61397d565b6000807f7fffffffffffffffffffffffffffffff5d576e7357a4501ddfe92f46681b20a0831115612faa575060009050600361302e565b6040805160008082526020820180845289905260ff881692820192909252606081018690526080810185905260019060a0016020604051602081039080840390855afa158015612ffe573d6000803e3d6000fd5b5050604051601f1901519150506001600160a01b0381166130275760006001925092505061302e565b9150600090505b94509492505050565b600081600481111561304b5761304b614733565b14156130545750565b600181600481111561306857613068614733565b14156130b65760405162461bcd60e51b815260206004820152601860248201527f45434453413a20696e76616c6964207369676e61747572650000000000000000604482015260640161037e565b60028160048111156130ca576130ca614733565b14156131185760405162461bcd60e51b815260206004820152601f60248201527f45434453413a20696e76616c6964207369676e6174757265206c656e67746800604482015260640161037e565b600381600481111561312c5761312c614733565b1415610cc95760405162461bcd60e51b815260206004820152602260248201527f45434453413a20696e76616c6964207369676e6174757265202773272076616c604482015261756560f01b606482015260840161037e565b600260ff841611156131af57604051632081b22360e01b815260ff8416600482015260240161037e565b60008360ff1660028111156131c6576131c6614733565b60008781526101fa602090815260408083206001600160a01b038a168452600381019092529091208054929350909160ff16156132165760405163b3808bab60e01b815260040160405180910390fd5b8054600160ff198216811783558491839161ffff199091161761010083600281111561324457613244614733565b02179055506132568883838a896139f1565b9450600083600281111561326c5761326c614733565b141561329157848260000160008282546132869190614e3a565b909155506132d99050565b60018360028111156132a5576132a5614733565b14156132bf57848260010160008282546132869190614e3a565b848260020160008282546132d39190614e3a565b90915550505b5050505050505050565b60006001600160e01b0382111561273c5760405162461bcd60e51b815260206004820152602760248201527f53616665436173743a2076616c756520646f65736e27742066697420696e20326044820152663234206269747360c81b606482015260840161037e565b60008061335a858585613c77565b915091505b935093915050565b8154600160801b90819004600f0b6000818152600180860160205260409091209390935583546001600160801b03908116939091011602179055565b6101635460405163e38335e560e01b81526001600160a01b039091169063e38335e59034906133df908890889088906000908990600401614d7e565b6000604051808303818588803b1580156133f857600080fd5b505af115801561340c573d6000803e3d6000fd5b50505050505050505050565b600081815261010060205260408120600281015460ff161561343d5750600792915050565b6002810154610100900460ff16156134585750600292915050565b600083815261010060205260409020546001600160401b0316806134be5760405162461bcd60e51b815260206004820152601d60248201527f476f7665726e6f723a20756e6b6e6f776e2070726f706f73616c206964000000604482015260640161037e565b60006134c861193a565b65ffffffffffff1690508082106134e457506000949350505050565b600085815261010060205260409020600101546001600160401b03168181106135135750600195945050505050565b61351c86613e1d565b801561352c575061352c86613e95565b1561353d5750600495945050505050565b50600395945050505050565b60008061355886868686613ed2565b60008181526101646020526040902054909150156110e35761016354600082815261016460205260409081902054905163c4d252f560e01b81526001600160a01b039092169163c4d252f5916135b49160040190815260200190565b600060405180830381600087803b1580156135ce57600080fd5b505af11580156135e2573d6000803e3d6000fd5b505050600082815261016460205260408120555095945050505050565b60008161360e57506000919050565b6000600161361b84613fde565b901c6001901b9050600181848161363457613634615096565b048201901c9050600181848161364c5761364c615096565b048201901c9050600181848161366457613664615096565b048201901c9050600181848161367c5761367c615096565b048201901c9050600181848161369457613694615096565b048201901c905060018184816136ac576136ac615096565b048201901c905060018184816136c4576136c4615096565b048201901c9050611a29818285816136de576136de615096565b04614072565b60005b8183101561373a5760006136fb8484614088565b60008781526020902090915063ffffffff86169082015463ffffffff16111561372657809250613734565b613731816001614e3a565b93505b506136e7565b509392505050565b60008060f883901c602f8111801561375d5750603a8160ff16105b1561377257600194602f199091019350915050565b8060ff166040108015613788575060478160ff16105b1561379d576001946036199091019350915050565b8060ff1660601080156137b3575060678160ff16105b156137c8576001946056199091019350915050565b50600093849350915050565b8151156137e45781518083602001fd5b8060405162461bcd60e51b815260040161037e9190614457565b5050565b600254610100900460ff166138295760405162461bcd60e51b815260040161037e90615179565b815161383c90606990602085019061415e565b50805161385090606a90602084019061415e565b50506000606781905560685550565b600254610100900460ff166138865760405162461bcd60e51b815260040161037e90615179565b80516137fe9060ff90602084019061415e565b600254610100900460ff166138c05760405162461bcd60e51b815260040161037e90615179565b6138c9836127f4565b6138d282612de7565b612c3481612e8a565b600254610100900460ff16611ae15760405162461bcd60e51b815260040161037e90615179565b600254610100900460ff16611ba95760405162461bcd60e51b815260040161037e90615179565b600254610100900460ff16610cc05760405162461bcd60e51b815260040161037e90615179565b600254610100900460ff166139775760405162461bcd60e51b815260040161037e90615179565b6101fb55565b60007f8b73c3c69bb8fe3d512ecc4cf759cc79239f7b179b0ffacaa9a75d522b39400f6139a86140a3565b6139b06140fc565b60408051602081019490945283019190915260608201524660808201523060a082015260c00160405160208183030381529060405280519060200120905090565b600085815261010060205260408120546001600160401b031681613a13611eb7565b60405163f92e135b60e01b81526001600160a01b03878116600483015260248201859052919091169063f92e135b90604401602060405180830381600087803b158015613a5f57600080fd5b505af1158015613a73573d6000803e3d6000fd5b505050506040513d601f19601f82011682018060405250810190613a9791906151c4565b90506001600160a01b03858116908216148015613ac7576001870154613abd9086614ebf565b93505050506110e3565b6000613ad1611eb7565b60405163f92e135b60e01b81526001600160a01b03858116600483015260248201879052919091169063f92e135b90604401602060405180830381600087803b158015613b1d57600080fd5b505af1158015613b31573d6000803e3d6000fd5b505050506040513d601f19601f82011682018060405250810190613b5591906151c4565b6001600160a01b0316836001600160a01b031614905080613b7c57859450505050506110e3565b6001600160a01b038316600090815260038a016020526040812060018101805491928992613bab908490614e3a565b9091555050805460ff1615613c68578054610100900460ff166000816002811115613bd857613bd8614733565b1415613bfd57878b6000016000828254613bf29190614ebf565b90915550613c669050565b6001816002811115613c1157613c11614733565b1415613c2b57878b6001016000828254613bf29190614ebf565b6002816002811115613c3f57613c3f614733565b14613c4c57613c4c6151e1565b878b6002016000828254613c609190614ebf565b90915550505b505b50949998505050505050505050565b825460009081908015613dc4576000613c95876127c2600185614ebf565b60408051808201909152905463ffffffff808216808452600160201b9092046001600160e01b031660208401529192509087161015613d165760405162461bcd60e51b815260206004820152601b60248201527f436865636b706f696e743a2064656372656173696e67206b6579730000000000604482015260640161037e565b8563ffffffff16816000015163ffffffff161415613d655784613d3e886127c2600186614ebf565b80546001600160e01b0392909216600160201b0263ffffffff909216919091179055613db4565b6040805180820190915263ffffffff80881682526001600160e01b0380881660208085019182528b54600181018d5560008d81529190912094519151909216600160201b029216919091179101555b60200151925083915061335f9050565b50506040805180820190915263ffffffff80851682526001600160e01b0380851660208085019182528854600181018a5560008a815291822095519251909316600160201b02919093161792019190915590508161335f565b600080600080613e478560009081526101fa60205260409020805460018201546002909201549092565b91945092509050600081613e5b8486614e3a565b613e659190614e3a565b9050613e8a610af387600090815261010060205260409020546001600160401b031690565b111595945050505050565b60008181526101fa60205260408120805460019091015482613eb78284614e3a565b9050613ec6816101fb5461412d565b90911015949350505050565b600080613ee186868686611ce1565b90506000613eee826110ec565b90506002816007811115613f0457613f04614733565b14158015613f2457506006816007811115613f2157613f21614733565b14155b8015613f4257506007816007811115613f3f57613f3f614733565b14155b613f8e5760405162461bcd60e51b815260206004820152601d60248201527f476f7665726e6f723a2070726f706f73616c206e6f7420616374697665000000604482015260640161037e565b60008281526101006020818152604092839020600201805461ff00191690921790915590518381527f789cf55be980739dad1d0699b93b58e806b51c9d96619bfa8fe0a28abaa7b30c9101610f6f565b600080608083901c15613ff357608092831c92015b604083901c1561400557604092831c92015b602083901c1561401757602092831c92015b601083901c1561402957601092831c92015b600883901c1561403b57600892831c92015b600483901c1561404d57600492831c92015b600283901c1561405f57600292831c92015b600183901c15610b3e5760010192915050565b60008183106140815781611a29565b5090919050565b600061409760028484186150ac565b611a2990848416614e3a565b6000806140ae612990565b8051909150156140c5578051602090910120919050565b60675480156140d45792915050565b7fc5d2460186f7233c927e7db2dcc703c0e500b653ca82273b7bfad8045d85a4709250505090565b60008061410761299f565b80519091501561411e578051602090910120919050565b60685480156140d45792915050565b6000611a29620f42406141408585614146565b90614152565b6000611a298284615077565b6000611a2982846150ac565b82805461416a90614c5b565b90600052602060002090601f01602090048101928261418c57600085556141d2565b82601f106141a557805160ff19168380011785556141d2565b828001600101855582156141d2579182015b828111156141d25782518255916020019190600101906141b7565b5061273c9291505b8082111561273c57600081556001016141da565b60006020828403121561420057600080fd5b81356001600160e01b031981168114611a2957600080fd5b803560ff811681146112c057600080fd5b60008083601f84011261423b57600080fd5b5081356001600160401b0381111561425257600080fd5b60208301915083602082850101111561426a57600080fd5b9250929050565b634e487b7160e01b600052604160045260246000fd5b604051601f8201601f191681016001600160401b03811182821017156142af576142af614271565b604052919050565b60006001600160401b038211156142d0576142d0614271565b50601f01601f191660200190565b60006142f16142ec846142b7565b614287565b905082815283838301111561430557600080fd5b828260208301376000602084830101529392505050565b600082601f83011261432d57600080fd5b611a29838335602085016142de565b60008060008060008060008060e0898b03121561435857600080fd5b8835975061436860208a01614218565b965060408901356001600160401b038082111561438457600080fd5b6143908c838d01614229565b909850965060608b01359150808211156143a957600080fd5b506143b68b828c0161431c565b9450506143c560808a01614218565b925060a0890135915060c089013590509295985092959890939650565b6000602082840312156143f457600080fd5b5035919050565b60005b838110156144165781810151838201526020016143fe565b83811115614425576000848401525b50505050565b600081518084526144438160208601602086016143fb565b601f01601f19169290920160200192915050565b602081526000611a29602083018461442b565b6001600160a01b0381168114610cc957600080fd5b6000806000806080858703121561449557600080fd5b84356144a08161446a565b935060208501356144b08161446a565b92506040850135915060608501356001600160401b038111156144d257600080fd5b6144de8782880161431c565b91505092959194509250565b60006001600160401b0382111561450357614503614271565b5060051b60200190565b600082601f83011261451e57600080fd5b8135602061452e6142ec836144ea565b82815260059290921b8401810191818101908684111561454d57600080fd5b8286015b848110156145715780356145648161446a565b8352918301918301614551565b509695505050505050565b600082601f83011261458d57600080fd5b8135602061459d6142ec836144ea565b82815260059290921b840181019181810190868411156145bc57600080fd5b8286015b8481101561457157803583529183019183016145c0565b600082601f8301126145e857600080fd5b813560206145f86142ec836144ea565b82815260059290921b8401810191818101908684111561461757600080fd5b8286015b848110156145715780356001600160401b0381111561463a5760008081fd5b6146488986838b010161431c565b84525091830191830161461b565b6000806000806080858703121561466c57600080fd5b84356001600160401b038082111561468357600080fd5b61468f8883890161450d565b955060208701359150808211156146a557600080fd5b6146b18883890161457c565b945060408701359150808211156146c757600080fd5b506146d4878288016145d7565b949793965093946060013593505050565b600080600080600060a086880312156146fd57600080fd5b8535945061470d60208701614218565b935061471b60408701614218565b94979396509394606081013594506080013592915050565b634e487b7160e01b600052602160045260246000fd5b602081016008831061476b57634e487b7160e01b600052602160045260246000fd5b91905290565b6000806040838503121561478457600080fd5b8235915060208301356147968161446a565b809150509250929050565b600080604083850312156147b457600080fd5b823591506147c460208401614218565b90509250929050565b6000806000806000608086880312156147e557600080fd5b853594506147f560208701614218565b935060408601356001600160401b038082111561481157600080fd5b61481d89838a01614229565b9095509350606088013591508082111561483657600080fd5b506148438882890161431c565b9150509295509295909350565b6000806000806060858703121561486657600080fd5b8435935061487660208601614218565b925060408501356001600160401b0381111561489157600080fd5b61489d87828801614229565b95989497509550505050565b600080600080608085870312156148bf57600080fd5b84356001600160401b03808211156148d657600080fd5b6148e28883890161450d565b955060208701359150808211156148f857600080fd5b6149048883890161457c565b9450604087013591508082111561491a57600080fd5b614926888389016145d7565b9350606087013591508082111561493c57600080fd5b508501601f8101871361494e57600080fd5b6144de878235602084016142de565b600081518084526020808501945080840160005b8381101561498d57815187529582019590820190600101614971565b509495945050505050565b60ff60f81b8816815260e0602082015260006149b760e083018961442b565b82810360408401526149c9818961442b565b606084018890526001600160a01b038716608085015260a0840186905283810360c08501529050610c2e818561495d565b600060208284031215614a0c57600080fd5b8135611a298161446a565b600080600060608486031215614a2c57600080fd5b8335614a378161446a565b92506020840135915060408401356001600160401b03811115614a5957600080fd5b614a658682870161431c565b9150509250925092565b600080600080600060a08688031215614a8757600080fd5b8535614a928161446a565b94506020860135614aa28161446a565b935060408601356001600160401b0380821115614abe57600080fd5b614aca89838a0161457c565b94506060880135915080821115614ae057600080fd5b614aec89838a0161457c565b9350608088013591508082111561483657600080fd5b60008060008060608587031215614b1857600080fd5b8435614b238161446a565b93506020850135925060408501356001600160401b0381111561489157600080fd5b600080600080600060a08688031215614b5d57600080fd5b505083359560208501359550604085013594606081013594506080013592509050565b60008060408385031215614b9357600080fd5b8235614b9e8161446a565b946020939093013593505050565b600080600080600060a08688031215614bc457600080fd5b8535614bcf8161446a565b94506020860135614bdf8161446a565b9350604086013592506060860135915060808601356001600160401b03811115614c0857600080fd5b6148438882890161431c565b8183823760009101908152919050565b60208082526018908201527f476f7665726e6f723a206f6e6c79476f7665726e616e63650000000000000000604082015260600190565b600181811c90821680614c6f57607f821691505b60208210811415614c9057634e487b7160e01b600052602260045260246000fd5b50919050565b60208082526021908201527f476f7665726e6f723a2070726f706f73616c206e6f74207375636365737366756040820152601b60fa1b606082015260800190565b600060208284031215614ce957600080fd5b5051919050565b600081518084526020808501945080840160005b8381101561498d5781516001600160a01b031687529582019590820190600101614d04565b600081518084526020808501808196508360051b8101915082860160005b85811015614d71578284038952614d5f84835161442b565b98850198935090840190600101614d47565b5091979650505050505050565b60a081526000614d9160a0830188614cf0565b8281036020840152614da3818861495d565b90508281036040840152614db78187614d29565b60608401959095525050608001529392505050565b60c081526000614ddf60c0830189614cf0565b8281036020840152614df1818961495d565b90508281036040840152614e058188614d29565b60608401969096525050608081019290925260a0909101529392505050565b634e487b7160e01b600052601160045260246000fd5b60008219821115614e4d57614e4d614e24565b500190565b600060208284031215614e6457600080fd5b81516001600160401b03811115614e7a57600080fd5b8201601f81018413614e8b57600080fd5b8051614e996142ec826142b7565b818152856020838501011115614eae57600080fd5b6110e38260208301602086016143fb565b600082821015614ed157614ed1614e24565b500390565b634e487b7160e01b600052603260045260246000fd5b60208082526021908201527f476f7665726e6f723a20696e76616c69642070726f706f73616c206c656e67746040820152600d60fb1b606082015260800190565b60006101208b8352602060018060a01b038c1681850152816040850152614f568285018c614cf0565b91508382036060850152614f6a828b61495d565b915083820360808501528189518084528284019150828160051b850101838c0160005b83811015614fbb57601f19878403018552614fa983835161442b565b94860194925090850190600101614f8d565b505086810360a0880152614fcf818c614d29565b9450505050508560c08401528460e0840152828103610100840152614ff4818561442b565b9c9b505050505050505050505050565b60006020828403121561501657600080fd5b815165ffffffffffff81168114611a2957600080fd5b60808152600061503f6080830187614cf0565b8281036020840152615051818761495d565b905082810360408401526150658186614d29565b91505082606083015295945050505050565b600081600019048311821515161561509157615091614e24565b500290565b634e487b7160e01b600052601260045260246000fd5b6000826150c957634e487b7160e01b600052601260045260246000fd5b500490565b84815260ff841660208201528260408201526080606082015260006111ff608083018461442b565b85815260ff8516602082015283604082015260a06060820152600061511e60a083018561442b565b8281036080840152615130818561442b565b98975050505050505050565b600060001982141561515057615150614e24565b5060010190565b60006020828403121561516957600080fd5b81518015158114611a2957600080fd5b6020808252602b908201527f496e697469616c697a61626c653a20636f6e7472616374206973206e6f74206960408201526a6e697469616c697a696e6760a81b606082015260800190565b6000602082840312156151d657600080fd5b8151611a298161446a565b634e487b7160e01b600052600160045260246000fdfe476f7665726e6f723a2072656c617920726576657274656420776974686f7574206d657373616765737570706f72743d627261766f2671756f72756d3d666f722c6162737461696e2c616761696e7374a2646970667358221220c56a5ec2f4b9a3a0072993fa1a3d151c946f99a3f035f50cea244182fdb6de5764736f6c63430008090033",
  "linkReferences": {},
  "deployedLinkReferences": {}
}